:10000000C2C00000E0C00000DEC00000DCC0000094
:10001000DAC00000D8C00000D6C00000D4C0000084
:10002000D2C00000D0C00000CEC00000CCC0000094
:10003000CAC00000C8C00000C6C00000C4C00000A4
:10004000C2C00000C0C00000BEC00000BCC00000B4
:10005000BAC00000B8C00000B6C00000B4C00000C4
:10006000B2C00000B0C00000AEC00000ACC00000D4
:10007000AAC00000A8C00000A6C00000A4C00000E4
:10008000A2C00000A0C000009EC000009CC00000F4
:10009000DFC1000098C0000096C00000B3C400009B
:1000A00092C0000090C000002CC400008CC0000072
:1000B0008AC0000088C0000086C0000084C0000024
:1000C00082C0000080C000007EC000007CC0000034
:1000D0007AC0000078C0000076C0000074C0000044
:1000E00072C000001D056F056F056F056F056F0578
:1000F0006F056F051D056F056F056F056F056F05B2
:100100006F056F051F056F056F056F056F056F059F
:100110006F056F056F056F056F056F056F056F053F
:100120006F056F051F056F056F056F056F056F057F
:100130006F056F056F056F056F056F056F056F051F
:100140006F056F056B056F056F056F056F056F0513
:100150006F056F0548056F056F056F056F056F0526
:100160006F056F056F056F056F056F056F056F05EF
:100170006F056F053C056F056F056F056F056F0512
:100180006F056F055A0511241FBECFEFD1E2DEBF08
:10019000CDBF00E00CBF12E0A0E0B2E0ECE2F4E181
:1001A00000E00BBF02C007900D92AC35B107D9F744
:1001B00022E0ACE5B2E001C01D92A537B207E1F73D
:1001C000C9D40C94140A1CCFEAE7F0E0808180685F
:1001D00080838081876080838098ECE7F0E0808175
:1001E0008F7780838081806480838081807E80831C
:1001F000ABE7B0E08C91877F8C93808180628083B5
:1002000008959FD140E664E680E682D140E060EE4A
:100210008FE07EC108951F93CF93DF93EC0180E3BD
:1002200043D183FD22C088819981969587959695C3
:1002300087959695879561E344D1888162E382959D
:10024000880F807E3ED165E38A813BD18A818823F5
:1002500061F010E066E3610FFE01E10FF11D8381A3
:1002600030D11F5F8A811817A8F381E83AD1DF9156
:10027000CF911F9108951F93CF93DF93EC018CE2F0
:1002800013D180FF34C02FEF80E792E021508040EF
:100290009040E1F700C0000081E606D1182F82E609
:1002A00003D1482F429546954770212F30E0C90170
:1002B000880F991F880F991F880F991F842B998386
:1002C000888385E6F1D087708A83882361F010E007
:1002D00086E6810FE9D0FE01E10FF11D83831F5FE8
:1002E0008A811817A8F340E061E08CE211D1DF9118
:1002F000CF911F910895FC01718360834283442351
:1003000059F0522FDC011396E22FF32F21912D93F8
:100310002E2F251B2417D0F30895789447C30895F2
:10032000CF93DF9300D0CDB7DEB79EE599831A82D5
:100330008B8363E0CE01019643D30F900F900F9013
:10034000DF91CF910895CF93DF93CCECD0E0198269
:100350001882539A5B98AAECB0E020EC2C93E9EC5D
:10036000F0E028E120839093CD0088838EE08C9389
:100370008081806880837894DF91CF910895E8EC44
:10038000F0E080818823ECF781E080935D0280912A
:10039000CE000895282F30E02E5731092D31310538
:1003A000B0F090E08C589109BC01992324F46627A1
:1003B0007727681B790B882777FD8095982F58D56C
:1003C0002FE832EC45E35FE3BDD424D501C060E003
:1003D00070E080E090E04CD526E636E646EE5FE33E
:1003E000FBD518D5862F0895CF93C9DF80935C0283
:1003F0008150823010F484E0BBD2C0915C02CA3FCD
:1004000079F467D287E092E09AD62FEF80E792E006
:10041000215080409040E1F700C0000058D216C043
:100420008AEF8C0F883138F46C2F70E080E090E018
:100430001DD51AD20BC08DEC8C0F833B38F48C2F5A
:10044000A9DF61E0C33808F460E0A9D0CF91089536
:100450001F920F920FB60F9211240BB60F928F932B
:10046000EF93FF9310925D028091CE0080935C0227
:10047000E8ECF0E080818F778083FF91EF918F919E
:100480000F900BBE0F900FBE0F901F9018959CCE33
:100490000895EAE7F0E0808180648083808186FDB2
:1004A000FDCF809179000895CF93C82F26D283E0A5
:1004B0001BD28C2F19D21DD2C82F21D28C2FCF91B5
:1004C0000895CF93DF93C82FD62F17D282E00CD296
:1004D0008D2F0AD28C2F08D212D280E0DF91CF91DB
:1004E0000895CF93C82F09D2C13039F018F0C23027
:1004F00039F009C081E8F8D108C082E8F5D105C01B
:1005000084E8F2D102C087E8EFD1F9D1CF91089504
:100510001F93CF93DF93182FD62FC42FEED185E0F2
:10052000E3D1812FE1D18D2FDFD18C2FDDD1E7D128
:10053000DF91CF911F910895E0D180ECD5D1DFC13B
:100540000895C9D1F9DF8FE99FE00197F1F700C065
:1005500000008EE0A9DF807E803819F08AE292E008
:10056000EEC50895E2E0F1E080818F7D8083808197
:10057000877F808385E88A95F1F700002091060146
:1005800080818860808385E88A95F1F700008091FA
:10059000060190819062908390E0922B08956130E3
:1005A00031F4E2E0F1E090819260908305C0E2E0F6
:1005B000F1E090819D7F9083B3CE0895CF93DF9338
:1005C000E1E0F1E080818A678083F0D1E2E0F1E050
:1005D00080818061808380818260808380818F7B45
:1005E000808380818064808380818F7D808380810F
:1005F000877F808360E08FE7D2DF2FEF8BE49DE180
:10060000215080409040E1F700C0000060E080E0B1
:10061000C6DFC2E0D1E018C02FEF89EF90E0215093
:1006200080409040E1F700C0000088818F7B888384
:100630002FEF89EF90E0215080409040E1F700C01B
:1006400000008881806488838DDF892B29F78ADF09
:1006500090935F0280935E022FEF83ED90E3215031
:1006600080409040E1F700C0000061E08FE797DF35
:100670002FEF8BE49DE1215080409040E1F700C0D6
:10068000000061E080E08BDF6DDF9093610280937A
:1006900060022FEF83ED90E3215080409040E1F71E
:1006A00000C0000060E08FE77ADF2FEF85EA9EE070
:1006B000215080409040E1F700C0000060E080E001
:1006C0006EDFDF91CF910895CF92DF92EF92FF928C
:1006D000CF93DF93BC018091600290916102681713
:1006E00079072CF460916002709161020BC08091D7
:1006F0005E0290915F028617970724F460915E0274
:1007000070915F02C0916002D0916102882777FDED
:100710008095982FADD36B017C01BE01882777FDB2
:100720008095982FA5D39B01AC0160E070E08FE726
:1007300093E408D39B01AC01C701B6014DD4905896
:1007400069D3862F8095DF91CF91FF90EF90DF9056
:10075000CF900895CF93DF93EC0104DFB5DF282F0E
:1007600030E0CE01821B930BAC0122F444275527C5
:10077000481B590B842F493720F44F514D3118F045
:1007800003C088E701C08CE32C173D071CF461E02F
:1007900006DF09C0C217D3071CF460E000DF03C006
:1007A00061E080E0FCDEDF91CF910895A0E8B0E049
:1007B0008C918E7F8C938C9182608C93E1E8F0E039
:1007C0008081886080838081806180838C91806853
:1007D0008C9380818460808380818D7F8083808101
:1007E0008160808388E391E0909387008093860006
:1007F00086E190E09093890080938800259A08957F
:10080000EF92FF920F931F93CF93DF93CDB7DEB795
:100810002B970FB6F894DEBF0FBECDBF1C8341E00F
:1008200061E08CE275DE6C8170E080E090E01ED3C8
:1008300020E030E04FE753E485D220E030E040E8AC
:1008400051E4CAD320E030E040E651E413D22B96C5
:100850000FB6F894DEBF0FBECDBFDF91CF911F91D1
:100860000F91FF90EF900895CF92DF92EF92FF9259
:100870006B017C0120E030E040EF51E4A9D38823F4
:100880003CF08EE190E0909389008093880018C03E
:1008900020E030E040E651E4C701B6014FD218161F
:1008A0003CF08EE090E0909389008093880008C02F
:1008B000C701B601AFD270E07093890060938800E1
:1008C000FF90EF90DF90CF900895249A08952C9890
:1008D00008952C9A0895219A229A279A209A23986B
:1008E0008CB581658CBD08958EBD0DB407FEFDCF1E
:1008F000089581E0F9DF8EB508952F9808952F9A15
:1009000008951F920F920FB60F9211248F939F9309
:1009100080916202909163020196909363028093AA
:1009200062028FE99FE00197F1F700C000009F91FC
:100930008F910F900FBE0F901F901895E1EAF0E095
:1009400080818860808389E09DE39093A9008093F3
:10095000A80081E78093B3007894E2E7F0E080811B
:1009600082608083E0E7F0E0808181608083089589
:100970001092630210926202843051F41092A5002A
:100980001092A400E1EAF0E0808185608083089500
:10099000823029F4E1EBF0E0808185608083089566
:1009A000E1EAF0E08081887F808308958CE0809385
:1009B000B8008FEF8093BB0084E08093BC00089563
:1009C000ECEBF0E0208120FDFDCF60936602FC019E
:1009D00020812093670220FD0CC0623050F0DC01C2
:1009E0001196E8E6F2E081E09D9191938F5F861386
:1009F000FBCF1092650288EF8093060285EA809310
:100A0000BC0008951F920F920FB60F9211240BB6DF
:100A10000F922F933F938F939F93AF93BF93EF9337
:100A2000FF938091B90090E0FC013897E135F10522
:100A300008F055C0EE58FF4F32C310926402E091A7
:100A4000640280916602E81770F481E08E0F809353
:100A50006402F0E0E959FD4F80818093BB0085E896
:100A60008093BC0043C080916502816080936502E1
:100A700084E98093BC003AC0E091640281E08E0F6B
:100A8000809364028091BB00F0E0E959FD4F8083C0
:100A90002091640230E08091660290E0019728176F
:100AA000390724F485EC8093BC0020C085E880934E
:100AB000BC001CC08091BB00E0916402F0E0E959E9
:100AC000FD4F80838091650281608093650284E997
:100AD0008093BC000BC085EA8093BC0007C0809166
:100AE000B9008093060284E08093BC00FF91EF91EF
:100AF000BF91AF919F918F913F912F910F900BBE1E
:100B00000F900FBE0F901F9018959093C500809383
:100B1000C400E1ECF0E088E180838EE08093C200C5
:100B2000808180688083E0ECF0E080818068808351
:100B300078940895E0ECF0E0908195FFFDCF8093EC
:100B4000C6000895E0ECF0E080818823ECF7809106
:100B5000C6000895CF93DF93CDB7DEB766970FB683
:100B6000F894DEBF0FBECDBF8FEF81B987E690E06E
:100B7000CCDF87E690E0E7DB62EA75E08AE995E0A2
:100B800094D23FDB13DEC9DB19DD81DC9EDED6DECD
:100B900020E030E041E060E070E0CE010196ABDBA8
:100BA0002BE0FC01DE01119601900D922A95E1F7F0
:100BB00020E030E041E06AE570E0CE010C969BDB7E
:100BC0000F2EFAE0DF2EF02DCE01019654DB898145
:100BD0009A818035910509F437C084369105A1F7D3
:100BE00084E0C6DEE980FA800B811C812D813E8184
:100BF0004F81588569857A858B8502DE35DE8F8148
:100C0000882371F066DE87E092E099D22FEF81EEC3
:100C100094E0215080409040E1F700C0000057DE92
:100C20008E8190E097DD35DC8F3070F6B9DE1D2DBA
:100C3000CE010C96F0DA8FE99FE00197F1F700C042
:100C400000001150A9F7C0CF84E092DE0AE0CCDBAF
:100C500020DC8F30E0F7A4DE102FCE010C96DBDA1B
:100C60008FE99FE00197F1F700C000001150A9F74C
:100C7000EECF5058BB27AA270ED070C161D130F0FB
:100C800066D120F031F49F3F11F41EF456C10EF4EA
:100C9000E095E7FB4CC1E92F72D180F3BA176207E8
:100CA00073078407950718F071F49EF58AC10EF456
:100CB000E0950B2EBA2FA02D0B01B90190010C016C
:100CC000CA01A0011124FF27591B99F0593F50F484
:100CD000503E68F11A16F040A22F232F342F4427DC
:100CE000585FF3CF469537952795A795F0405395D4
:100CF000C9F77EF41F16BA0B620B730B840BBAF0A4
:100D00009150A1F0FF0FBB1F661F771F881FC2F70E
:100D10000EC0BA0F621F731F841F48F48795779522
:100D20006795B795F7959E3F08F0B3CF9395880FD9
:100D300008F09927EE0F979587950895D4D008F479
:100D400081E008950CD00AC102D140F0F9D030F012
:100D500021F45F3F19F0EBC0511134C1EEC00FD147
:100D600098F39923C9F35523B1F3951B550BBB2772
:100D7000AA2762177307840738F09F5F5F4F220F1F
:100D8000331F441FAA1FA9F333D00E2E3AF0E0E818
:100D900030D091505040E695001CCAF729D0FE2F64
:100DA00027D0660F771F881FBB1F261737074807F6
:100DB000AB07B0E809F0BB0B802DBF01FF279358AC
:100DC0005F4F2AF09E3F510568F0B1C0FBC05F3F06
:100DD000ECF3983EDCF3869577956795B795F79594
:100DE0009F5FC9F7880F911D9695879597F908958C
:100DF000E1E0660F771F881FBB1F62177307840728
:100E0000BA0720F0621B730B840BBA0BEE1F88F736
:100E1000E0950895BCD088F09F5790F0B92F99279E
:100E2000B751A0F0D1F0660F771F881F991F1AF0F5
:100E3000BA95C9F712C0B13081F0C3D0B1E00895BE
:100E4000C0C0672F782F8827B85F39F0B93FCCF33F
:100E5000869577956795B395D9F73EF490958095EB
:100E6000709561957F4F8F4F9F4F0895E89409C00B
:100E700097FB3EF490958095709561957F4F8F4FCD
:100E80009F4F9923A9F0F92F96E9BB279395F695E3
:100E9000879577956795B795F111F8CFFAF4BB0F61
:100EA00011F460FF1BC06F5F7F4F8F4F9F4F16C0C5
:100EB000882311F096E911C0772321F09EE8872F4F
:100EC000762F05C0662371F096E8862F70E060E00B
:100ED0002AF09A95660F771F881FDAF7880F969584
:100EE000879597F90895990F0008550FAA0BE0E828
:100EF000FEEF16161706E807F907C0F012161306DC
:100F0000E407F50798F0621B730B840B950B39F41B
:100F10000A2661F0232B242B252B21F408950A2681
:100F200009F4A140A6958FEF811D811D089597F9C1
:100F30009F6780E870E060E008959FEF80EC08957F
:100F400000240A94161617061806090608950024A8
:100F50000A9412161306140605060895092E039422
:100F6000000C11F4882352F0BB0F40F4BF2B11F496
:100F700060FF04C06F5F7F4F8F4F9F4F089557FDF5
:100F80009058440F551F59F05F3F71F04795880FF7
:100F900097FB991F61F09F3F79F08795089512168E
:100FA00013061406551FF2CF4695F1DF08C016163A
:100FB00017061806991FF1CF8695710561050894EB
:100FC0000895E894BB2766277727CB0197F9089502
:100FD0008ADF08F48FEF08950BD0C0CFB1DF28F07F
:100FE000B6DF18F0952309F0A2CFA7CF1124EACFDE
:100FF000C6DFA0F3959FD1F3950F50E0551F629F78
:10100000F001729FBB27F00DB11D639FAA27F00D61
:10101000B11DAA1F649F6627B00DA11D661F829F88
:101020002227B00DA11D621F739FB00DA11D621F6D
:10103000839FA00D611D221F749F3327A00D611D8A
:10104000231F849F600D211D822F762F6A2F11246C
:101050009F5750408AF0E1F088234AF0EE0FFF1FBF
:10106000BB1F661F771F881F91505040A9F79E3FF6
:10107000510570F05CCFA6CF5F3FECF3983EDCF3F8
:10108000869577956795B795F795E7959F5FC1F733
:10109000FE2B880F911D9695879597F90895EE0F71
:1010A000FF1F0590F491E02D19940F931F93CF9398
:1010B000DF93EC018B01009731F46115710519F490
:1010C00080E090E037C06EE070E081E090E064D0B6
:1010D000FC010097A9F380E883830115110571F0E5
:1010E0001387028781E8838380916B0290916C0261
:1010F000892B21F4F0936C02E0936B022097C9F0E6
:10110000D187C08783818260838380916D029091B3
:101110006E02892B71F4F0936E02E0936D02809160
:101120006F0290917002892B21F4F0937002E0938A
:101130006F02CF01DF91CF911F910F9108950F930F
:101140001F93CF93DF93E0916D02F0916E022381A4
:1011500021FF1BC0EC0100E010E0899160916D025D
:1011600070916E02DB011896ED91FC91199788231E
:1011700031F01995892B89F30FEF1FEFEECF8AE03D
:101180001995892B11F4C80102C08FEF9FEFDF91F1
:10119000CF911F910F9108950F931F93CF93DF93DA
:1011A000869F8001879F100D969F100D1124C80106
:1011B0000DD0EC01009721F0A80160E070E02DD186
:1011C000CE01DF91CF911F910F910895CF93DF93BF
:1011D0008230910510F482E090E0E0917302F0918A
:1011E000740220E030E0A0E0B0E0309739F14081B7
:1011F000518148175907B8F04817590771F482818F
:101200009381109729F013969C938E9312972CC07C
:10121000909374028093730227C02115310531F039
:101220004217530718F0A901DB0101C0EF019A0131
:10123000BD01DF010280F381E02DD7CF21153105FB
:10124000F9F0281B390B2430310580F48A819B8109
:101250006115710521F0FB019383828304C0909393
:10126000740280937302FE01329644C0FE01E20FC5
:10127000F31F8193919322503109398328833AC017
:101280002091710230917202232B41F420910202CD
:101290003091030230937202209371022091000278
:1012A000309101022115310541F42DB73EB740912F
:1012B000040250910502241B350BE0917102F0915C
:1012C0007202E217F307A0F42E1B3F0B2817390711
:1012D00078F0AC014E5F5F4F2417350748F04E0F92
:1012E0005F1F50937202409371028193919302C0E9
:1012F000E0E0F0E0CF01DF91CF910895CF93DF934D
:10130000009709F487C0FC01329713821282C091C2
:101310007302D0917402209781F420813181280FCB
:10132000391F80917102909172028217930779F5AB
:10133000F0937202E09371026DC0DE0120E030E0B4
:10134000AE17BF0750F412964D915C9113979D0113
:101350004115510509F1DA01F3CFB383A28340812E
:101360005181840F951F8A179B0771F48D919C9171
:101370001197840F951F02969183808312968D9109
:101380009C911397938382832115310529F4F0935F
:101390007402E09373023EC0D9011396FC93EE935E
:1013A00012974D915D91A40FB51FEA17FB0779F4D1
:1013B00080819181840F951F0296D90111969C938B
:1013C0008E938281938113969C938E931297E0E083
:1013D000F0E08A819B81009719F0FE01EC01F9CFC2
:1013E000CE01029628813981820F931F20917102CC
:1013F000309172022817390769F4309729F4109256
:1014000074021092730202C013821282D09372028D
:10141000C0937102DF91CF910895DC0101C06D93FB
:0C14200041505040E0F70895F894FFCFD1
:10142C00000075022000F8534F4C454E4F49445F65
:10143C00656E61626C656400534552564F20494E8F
:10144C005055543A2025640A0A004D435032353128
:10145C003520696E204E4F5420696E20636F6E6686
:10146C00696775726174696F6E206D6F6465206158
:0C147C006674657220726573657421004F
:00000001FF
