S00E00004E6F64655F322E73726563FF
S1130000C2C00000E0C00000DEC00000DDC000008F
S1130010DAC00000D8C00000D6C00000D4C0000080
S1130020DFC00000D0C00000CEC00000CCC0000083
S1130030CAC00000C8C00000C6C00000A0C30000C1
S1130040C2C00000C0C00000BEC00000BCC00000B0
S1130050BAC00000B8C00000B6C00000B4C00000C0
S1130060B2C00000B0C00000AEC00000ACC00000D0
S1130070AAC0000081C20000A6C00000A4C0000005
S1130080A2C00000A0C000009EC000009CC00000F0
S11300902FC2000098C0000096C000004DC60000AA
S11300A092C0000090C00000CCC500008CC00000CD
S11300B08AC0000088C0000086C0000084C0000020
S11300C082C0000080C000007EC000007CC0000030
S11300D07AC0000078C0000076C0000074C0000040
S11300E072C00000B70609070907090709070907CD
S11300F009070907B70609070907090709070907CF
S113010009070907B90609070907090709070907BC
S1130110090709070907090709070907090709075B
S113012009070907B906090709070907090709079C
S1130130090709070907090709070907090709073B
S1130140090709070507090709070907090709072F
S113015009070907E2060907090709070907090743
S1130160090709070907090709070907090709070B
S113017009070907D606090709070907090709072F
S113018009070907F40611241FBECFEFD1E2DEBF31
S1130190CDBF00E00CBF14E0A0E0B2E0EEE0FDE172
S11301A000E00BBF02C007900D92A638B107D9F743
S11301B024E0A6E8B4E001C01D92AA3AB207E1F730
S11301C069D60C94850E1CCF1F920F920FB60F9216
S11301D0112410929F040F900FBE0F901F9018953A
S11301E01F920F920FB60F9211240BB60F922F93FA
S11301F03F934F935F936F937F938F939F93AF93AB
S1130200BF93EF93FF9380E192E09F938F930E94BB
S1130210920B0F900F90FF91EF91BF91AF919F912F
S11302208F917F916F915F914F913F912F910F909B
S11302300BBE0F900FBE0F901F901895D2D140E6C1
S113024064E680E6B5D140E060EE8FE0B1D14FEFD7
S113025061E08BE2ADD14FEF60E680E6A9C108957D
S11302601F93CF93DF93EC018CE295D180FF34C0D0
S11302702FEF80E792E0215080409040E1F700C0EA
S1130280000081E688D1182F82E685D1482F429557
S113029046954770212F30E0C901880F991F880FB8
S11302A0991F880F991F842B9983888385E673D1BE
S11302B08F708A83882361F010E086E6810F6BD10A
S11302C0FE01E10FF11D83831F5F8A811817A8F3D4
S11302D040E061E08CE26CD1DF91CF911F910895F1
S11302E0CF92DF92EF92FF920F931F93CF93DF93FE
S11302F0CDB7DEB72B970FB6F894DEBF0FBECDBFD8
S1130300E982FA82C02E0B831C832D833E834F83A4
S1130310588769877A878B871F920F938A818F9377
S113032089818F938BE192E09F938F930E94920B2C
S11303300F900F900F900F900F900F900023B9F033
S11303407E0184E0E80EF11CD12C0EE312E0F701EB
S113035081917F011F928F931F930F930E94920BA1
S1130360D3940F900F900F900F90DC10F0CF8BEE82
S113037093E00E94A30B2B960FB6F894DEBF0FBE3A
S1130380CDBFDF91CF911F910F91FF90EF90DF9040
S1130390CF9008957894A4C40895CF93DF9300D0A8
S11303A0CDB7DEB79EE599831A828B8363E0CE01D5
S11303B00196A0D40F900F900F90DF91CF910895E4
S11303C0CF93DF93CCECD0E019821882539A5B98D8
S11303D0AAECB0E020EC2C93E9ECF0E028E12083D7
S11303E09093CD0088838EE08C9380818068808395
S11303F07894DF91CF910895E8ECF0E08081882330
S1130400ECF781E0809387048091CE000895282F33
S113041030E02E5731092D313105B0F090E08C5881
S11304209109BC01992324F466277727681B790B6B
S1130430882777FD8095982FE7D62FE832EC45E39F
S11304405FE347D6B3D601C060E070E080E090E09F
S1130450DBD626E636E646EE5FE38AD7A7D6862FB6
S11304600895CF93C9DF809386041F928F9382E40B
S113047092E09F938F930E94920B80918604815007
S11304800F900F900F900F90823020F482E592E04D
S11304900E94A30BC0918604CA3F81F4BAD382E6BA
S11304A092E00E94A30B2FEF80E792E0215080405E
S11304B09040E1F700C00000AAD316C08AEF8C0F69
S11304C0883138F46C2F70E080E090E09BD66CD3D8
S11304D00BC08DEC8C0F833B38F48C2F98DF61E0DC
S11304E0C33808F460E0DAD080918604CF9108958F
S11304F01F920F920FB60F9211240BB60F928F9387
S1130500EF93FF93109287048091CE00809386042A
S1130510E8ECF0E080818F778083FF91EF918F91F9
S11305200F900BBE0F900FBE0F901F901895EAE727
S1130530F0E08081876880838098ECE7F0E0808138
S11305408064808380818F7780838081807E8083B4
S1130550EBE7F0E08081877F80837894EAE7F0E03E
S113056080818860808380818F7E8083ECE7F0E0E7
S113057080818062808308951F920F920FB60F923C
S113058011248F9381E0809388048F910F900FBE84
S11305900F901F901895CF93C82F4FD383E044D367
S11305A08C2F42D346D3C82F4AD38C2FCF91089592
S11305B01F93CF93DF93182FD62FC42F3ED385E0FC
S11305C033D3812F31D38D2F2FD38C2F2DD337D3EA
S11305D0DF91CF911F91089530D380EC25D32FC3A1
S11305E00895CF9318D3F8DF8FE99FE00197F1F7CF
S11305F000C0000041E061E08BE2DADF8EE0CBDF97
S1130600C82F1F928F9325E832E03F932F930E94C7
S1130610920BC07E0F900F900F900F90C03831F066
S11306208FE892E00E94A30B81E001C080E0CF91AB
S11306300895E1E0F1E080818A67808351D3E2E0AC
S1130640F1E080818261808380818F7B80838081DF
S11306508064808380818F7D80838081877F808395
S11306600895E2E0F1E080818F7D80838081877F3F
S1130670808385E88A95F1F7000020910601808146
S11306808860808385E88A95F1F7000080910601EF
S113069090819062908390E0922B0895613031F4C0
S11306A0E2E0F1E090819260908305C0E2E0F1E045
S11306B090819D7F908371CE08950F931F93CF9364
S11306C0DF93EC01CEDF6FD0182F282F30E0AE017E
S11306D0425E5F4F24173507CCF4DF93CF931F920C
S11306E01F9321EC32E03F932F930E94920B61E021
S11306F080910602D3DF83EE92E00E94A30B0F9059
S11307000F900F900F900F900F9019C0AE014E51A3
S11307105109421753074CF460E080910602BEDF92
S11307208FEF92E00E94A30B0AC061E080E0B6DF85
S11307302AE133E03F932F93F5D70F900F90CED15A
S1130740082F8FDF30D01F921F921F920F931F929A
S11307508F931F921F93DF93CF9383E293E09F9332
S11307608F93E0D78DB79EB70C960FB6F8949EBFC3
S11307700FBE8DBFDF91CF911F910F9108951F92EE
S11307800F920FB60F9211248F939F9381E090E004
S113079090938A04809389049F918F910F900FBE48
S11307A00F901F901895CF92DF92EF92FF92CF9304
S11307B0DF93BC01809194049091950468177907A4
S11307C02CF460919404709195040BC08091920470
S11307D0909193048617970724F460919204709182
S11307E09304C0919404D0919504882777FD809553
S11307F0982F0AD56B017C01BE01882777FD80956F
S1130800982F02D59B01AC0160E070E08FE793E480
S113081060D49B01AC01C701B601AAD59058C6D4D7
S1130820862F8095DF91CF91FF90EF90DF90CF904E
S113083008950F931F93CF93DF9360E08FE72EDF2C
S11308408BE693E080D72FEF89E698E12150804032
S11308509040E1F700C0000060E080E01FDF01DFAE
S11308609F938F938DE793E09F938F935BD70F9024
S11308700F900F900F9002E913E0C2E0D1E01DC089
S11308802FEF89EF90E0215080409040E1F700C0C5
S113089000001F930F9346D788818F7B88832FEFA7
S11308A089EF90E0215080409040E1F700C00000C3
S11308B08881806488830F900F90D3DE892B01F7A1
S11308C0D0DE9093930480939204CBDE9F938F9316
S11308D08EE993E09F938F9325D72FEF83ED90E3D9
S11308E0215080409040E1F700C0000061E08FE7B4
S11308F0D5DE2FEF89E698E1215080409040E1F762
S113090000C0000061E080E0C9DEABDE9F938F93FE
S11309108CEA93E09F938F9305D7A3DE909395047D
S1130920809394042FEF83ED90E321508040904016
S1130930E1F700C0000060E08FE7B0DE2FEF85EA4A
S11309409EE0215080409040E1F700C0000060E04C
S113095080E0A4DE809192049091930424DF1F929E
S11309608F938AEB93E09F938F93DCD680919404CA
S11309709091950418DF1F928F9383ED93E09F93DA
S11309808F93D0D682E094D18EEE93E09F938F9391
S1130990C9D678948DB79EB742960FB6F8949EBF89
S11309A00FBE8DBFDF91CF911F910F9108958F924C
S11309B09F92AF92BF92CF92DF92EF92FF920F93EA
S11309C01F93CF93DF93CDB7DEB72B970FB6F89471
S11309D0DEBF0FBECDBF032F10E01F923F9386EF03
S11309E093E09F938F939ED63CDEDDDE081B1109B6
S11309F0B801882777FD8095982F06D46B017C0178
S1130A0020918E0430918F04409190045091910470
S1130A10AFD44B015C0160918D04772767FD70951D
S1130A20872F972FF1D39B01AC01C501B401E9D203
S1130A30B8D3B62E60938D0420910B0230910C0232
S1130A4040910D0250910E02C701B60191D46B0181
S1130A507C016B2D772767FD7095872F972FD4D353
S1130A6020910702309108024091090250910A0234
S1130A707FD49B01AC01C701B601C3D292D3E62E49
S1130A80F72E10938C0400938B042B2D332727FD12
S1130A9030953F93BF927F936F931F930F9325E0FD
S1130AA034E03F932F933ED60FB6F894DEBF0FBECB
S1130AB0CDBF8E2D9F2D2B960FB6F894DEBF0FBEA3
S1130AC0CDBFDF91CF911F910F91FF90EF90DF90F9
S1130AD0CF90BF90AF909F908F9008958091940491
S1130AE0909195040895A0E8B0E08C918E7F8C934A
S1130AF08C9182608C93E1E8F0E08081886080834F
S1130B008081806180838C9180688C9380818460F3
S1130B10808380818D7F808380818160808388E36E
S1130B2091E0909387008093860086E190E0909313
S1130B30890080938800259A0895EF92FF920F937D
S1130B401F93CF93DF93CDB7DEB72B970FB6F894EF
S1130B50DEBF0FBECDBF1C838BEE93E0F4D541E026
S1130B6061E08CE225DD6C8170E080E090E04AD3A6
S1130B7020E030E04FE753E4ACD220E030E040E83E
S1130B8051E4F6D320E030E040E651E43AD22B962B
S1130B900FB6F894DEBF0FBECDBFDF91CF911F918A
S1130BA00F91FF90EF900895CF92DF92EF92FF9212
S1130BB06B017C0120E030E040EF51E4D5D3882381
S1130BC03CF08EE190E0909389008093880018C0F7
S1130BD020E030E040E651E4C701B60176D21816B1
S1130BE03CF08EE090E0909389008093880008C0E8
S1130BF0C701B601DBD270E070938900609388006E
S1130C00FF90EF90DF90CF900895249A08952C9848
S1130C1008952C9A0895219A229A279A209A239823
S1130C208CB581658CBD08958EBD0DB407FEFDCFD6
S1130C30089581E0F9DF8EB508952F9808952F9ACD
S1130C4008951F920F920FB60F9211248F939F93C2
S1130C5080919604909197040196909397048093C1
S1130C6096048FE99FE00197F1F700C000009F917F
S1130C708F910F900FBE0F901F901895E1EAF0E04E
S1130C8080818860808389E09DE39093A9008093AC
S1130C90A80081E78093B3007894E2E7F0E08081D4
S1130CA082608083E0E7F0E0808181608083089542
S1130CB01092970410929604843051F41092A50077
S1130CC01092A400E1EAF0E08081856080830895B9
S1130CD0823029F4E1EBF0E080818560808308951F
S1130CE08CE08093B8008FEF8093BB0084E0809306
S1130CF0BC000895ECEBF0E0208120FDFDCF609373
S1130D009A04FC01208120939B0420FD0CC06230D6
S1130D1050F0DC011196ECE9F4E081E09D919193AF
S1130D208F5F8613FBCF1092990488EF80930F0294
S1130D3085EA8093BC0008951F920F920FB60F921C
S1130D4011240BB60F922F933F938F939F93AF93DE
S1130D50BF93EF93FF938091B90090E0FC01389723
S1130D60E135F10508F055C0EE58FF4F64C3109209
S1130D709804E091980480919A04E81770F481E053
S1130D808E0F80939804F0E0E556FB4F80818093AA
S1130D90BB0085E88093BC0043C0809199048160C6
S1130DA08093990484E98093BC003AC0E09198044C
S1130DB081E08E0F809398048091BB00F0E0E556AB
S1130DC0FB4F80832091980430E080919A0490E056
S1130DD001972817390724F485EC8093BC0020C0C0
S1130DE085E88093BC001CC08091BB00E09198040E
S1130DF0F0E0E556FB4F80838091990481608093F5
S1130E00990484E98093BC000BC085EA8093BC00FC
S1130E1007C08091B90080930F0284E08093BC00E6
S1130E20FF91EF91BF91AF919F918F913F912F913E
S1130E300F900BBE0F900FBE0F901F9018959093BC
S1130E40C5008093C40088E18093C1008EE0809344
S1130E50C200F894E1ECF0E0808180688083E0ECEB
S1130E60F0E0808180688083789481E090E0089548
S1130E70E0ECF0E0908195FFFDCF8093C60083E025
S1130E8090E00895E0ECF0E080818823ECF7809115
S1130E90C6000895CF93DF93CDB7DEB766970FB63C
S1130EA0F894DEBF0FBECDBF8FEF81B987E690E027
S1130EB0C6DF87E690E084DA62E477E088E397E0CF
S1130EC0E7D3BCD910DE66DAB4DB31DB9EDED6DED6
S1130ED084E494E038D4ADDC1A82198281E08B83F7
S1130EE01C82CE010196BCD98FE39CE90197F1F7EE
S1130EF000C000000F2EF5E5CF2EF4E0DF2EF02D1C
S1130F00772473940F2EFBE58F2EF4E09F2EF02DA3
S1130F100F2EFDE6AF2EF4E0BF2EF02DDF92CF9220
S1130F2001D41D861C867E861F86CE010C9698D918
S1130F308FE39CE90197F1F700C00000EC84FD8485
S1130F400E851F85288939894A895B896C897D8941
S1130F508E89C6D98C859D850F900F908436910516
S1130F6009F041C08E858730C9F6EC84FD84082FD2
S1130F701F85288939894A895B896C897D898E898D
S1130F80DCDD12DE8A89882371F043DE82E692E09A
S1130F90DAD39FEF25EA8EE0915020408040E1F7BC
S1130FA000C0000034DE89891F928F939F928F9234
S1130FB0B9D3EC84FD840E851F85288939894A8933
S1130FC05B896C897D898E89F2DC9F938F93BF92B4
S1130FD0AF92A8D3898990E070DB0FB6F894DEBF96
S1130FE00FBECDBF9BCF8035910509F097CF04DAB2
S1130FF0813009F093CF84E05BDE33DA32DAFECF5E
S11310005058BB27AA270ED075C166D130F06BD1DA
S113101020F031F49F3F11F41EF45BC10EF4E0950F
S1131020E7FB51C1E92F77D180F3BA176207730741
S11310308407950718F071F49EF58FC10EF4E095BE
S11310400B2EBA2FA02D0B01B90190010C01CA017E
S1131050A0011124FF27591B99F0593F50F4503E29
S113106068F11A16F040A22F232F342F4427585F1B
S1131070F3CF469537952795A795F0405395C9F733
S11310807EF41F16BA0B620B730B840BBAF09150EB
S1131090A1F0FF0FBB1F661F771F881FC2F70EC08A
S11310A0BA0F621F731F841F48F48795779567955D
S11310B0B795F7959E3F08F0B3CF9395880F08F046
S11310C09927EE0F979587950895D9D008F481E074
S11310D008950CD00FC107D140F0FED030F021F4B8
S11310E05F3F19F0F0C0511139C1F3C014D198F326
S11310F09923C9F35523B1F3951B550BBB27AA2795
S113110062177307840738F09F5F5F4F220F331F06
S1131110441FAA1FA9F333D00E2E3AF0E0E830D0D2
S113112091505040E695001CCAF729D0FE2F27D0D5
S1131130660F771F881FBB1F261737074807AB07A3
S1131140B0E809F0BB0B802DBF01FF2793585F4F18
S11311502AF09E3F510568F0B6C000C15F3FECF332
S1131160983EDCF3869577956795B795F7959F5FDD
S1131170C9F7880F911D9695879597F90895E1E031
S1131180660F771F881FBB1F621773078407BA0790
S113119020F0621B730B840BBA0BEE1F88F7E095EB
S11311A0089504D06894B111D9C00895BCD088F0D2
S11311B09F5790F0B92F9927B751A0F0D1F0660F3F
S11311C0771F881F991F1AF0BA95C9F712C0B1305A
S11311D081F0C3D0B1E00895C0C0672F782F88276D
S11311E0B85F39F0B93FCCF3869577956795B39599
S11311F0D9F73EF490958095709561957F4F8F4F08
S11312009F4F0895E89409C097FB3EF4909580950C
S1131210709561957F4F8F4F9F4F9923A9F0F92FB8
S113122096E9BB279395F695879577956795B79536
S1131230F111F8CFFAF4BB0F11F460FF1BC06F5F1C
S11312407F4F8F4F9F4F16C0882311F096E911C02E
S1131250772321F09EE8872F762F05C0662371F04F
S113126096E8862F70E060E02AF09A95660F771F63
S1131270881FDAF7880F9695879597F90895990F3F
S11312800008550FAA0BE0E8FEEF16161706E8074C
S1131290F907C0F012161306E407F50798F0621B6D
S11312A0730B840B950B39F40A2661F0232B242B42
S11312B0252B21F408950A2609F4A140A6958FEF61
S11312C0811D811D089597F99F6780E870E060E0B3
S11312D008959FEF80EC089500240A9416161706CB
S11312E018060906089500240A9412161306140613
S11312F005060895092E0394000C11F4882352F076
S1131300BB0F40F4BF2B11F460FF04C06F5F7F4F2D
S11313108F4F9F4F089557FD9058440F551F59F014
S11313205F3F71F04795880F97FB991F61F09F3FCE
S113133079F087950895121613061406551FF2CFF7
S11313404695F1DF08C0161617061806991FF1CF47
S113135086957105610508940895E894BB2766276E
S11313607727CB0197F908958ADF08F48FEF089562
S11313700BD0C0CFB1DF28F0B6DF18F0952309F009
S1131380A2CFA7CF1124EACFC6DFA0F3959FD1F354
S1131390950F50E0551F629FF001729FBB27F00D1F
S11313A0B11D639FAA27F00DB11DAA1F649F662774
S11313B0B00DA11D661F829F2227B00DA11D621FC3
S11313C0739FB00DA11D621F839FA00D611D221F7D
S11313D0749F3327A00D611D231F849F600D211D61
S11313E0822F762F6A2F11249F5750408AF0E1F004
S11313F088234AF0EE0FFF1FBB1F661F771F881F4D
S113140091505040A9F79E3F510570F05CCFA6CF94
S11314105F3FECF3983EDCF3869577956795B79537
S1131420F795E7959F5FC1F7FE2B880F911D969561
S1131430879597F90895EE0FFF1F0590F491E02D1D
S11314401994CF93DF938230910510F482E090E0F9
S1131450E091A204F091A30420E030E0A0E0B0E029
S1131460309739F14081518148175907B8F048172E
S1131470590771F482819381109729F013969C93F4
S11314808E9312972CC09093A3048093A20427C038
S11314902115310531F04217530718F0A901DB017A
S11314A001C0EF019A01BD01DF010280F381E02D4B
S11314B0D7CF21153105F9F0281B390B243031051C
S11314C080F48A819B816115710521F0FB0193836E
S11314D0828304C09093A3048093A204FE013296F5
S11314E044C0FE01E20FF31F81939193225031090E
S11314F0398328833AC02091A0043091A104232B7E
S113150041F420910202309103023093A10420930C
S1131510A00420910002309101022115310541F40B
S11315202DB73EB74091040250910502241B350BA0
S1131530E091A004F091A104E217F307A0F42E1B9C
S11315403F0B2817390778F0AC014E5F5F4F241723
S1131550350748F04E0F5F1F5093A1044093A00439
S11315608193919302C0E0E0F0E0CF01DF91CF914D
S11315700895CF93DF93009709F487C0FC01329755
S113158013821282C091A204D091A304209781F403
S113159020813181280F391F8091A0049091A104EA
S11315A08217930779F5F093A104E093A0046DC02A
S11315B0DE0120E030E0AE17BF0750F412964D91E3
S11315C05C9113979D014115510509F1DA01F3CF9F
S11315D0B383A28340815181840F951F8A179B078F
S11315E071F48D919C911197840F951F02969183AC
S11315F0808312968D919C911397938382832115F6
S1131600310529F4F093A304E093A2043EC0D90168
S11316101396FC93EE9312974D915D91A40FB51F11
S1131620EA17FB0779F480819181840F951F029654
S1131630D90111969C938E938281938113969C93E6
S11316408E931297E0E0F0E08A819B81009719F075
S1131650FE01EC01F9CFCE01029628813981820F77
S1131660931F2091A0043091A1042817390769F42D
S1131670309729F41092A3041092A20402C013829A
S11316801282D093A104C093A004DF91CF91089556
S11316900F931F93CF93DF93EC018B01009731F4E9
S11316A06115710519F480E090E037C06EE070E0D8
S11316B081E090E063D2FC010097A9F380E8838382
S11316C00115110571F01387028781E883838091E6
S11316D0A4049091A504892B21F4F093A504E0932C
S11316E0A4042097C9F0D187C08783818260838353
S11316F08091A6049091A704892B71F4F093A70418
S1131700E093A6048091A8049091A904892B21F464
S1131710F093A904E093A804CF01DF91CF911F9126
S11317200F910895CF93DF93CDB7DEB7FE013696C0
S113173061917191AF018091A6049091A70430D07A
S1131740DF91CF9108950F931F93CF93DF93E0918F
S1131750A604F091A704238121FF1BC0EC0100E043
S113176010E089916091A6047091A704DB0118969A
S1131770ED91FC911997882331F01995892B89F300
S11317800FEF1FEFEECF8AE01995892B11F4C801F2
S113179002C08FEF9FEFDF91CF911F910F910895BA
S11317A02F923F924F925F926F927F928F929F926D
S11317B0AF92BF92CF92DF92EF92FF920F931F935B
S11317C0CF93DF93CDB7DEB72C970FB6F894DEBF77
S11317D00FBECDBF7C016B018A01FC01178216820A
S11317E0838181FFB0C1CE0101964C01F701938141
S11317F0F60193FD859193FF81916F01882309F48C
S11318009EC1853239F493FD859193FF81916F01D7
S1131810853221F4B70190E0E8D1E8CF512C312C86
S113182020E02032A0F48B3269F030F4803259F099
S1131830833269F420612CC08D3239F0803339F45D
S1131840216026C02260246023C0286021C027FDB7
S113185027C030ED380F3A3078F426FF06C0FAE09E
S11318605F9E300D1124532E13C08AE0389E300D34
S11318701124332E20620CC08E3221F426FD5FC168
S1131880206406C08C3611F4206802C0883641F406
S1131890F60193FD859193FF81916F018111C1CF71
S11318A0982F9F7D9554933028F40C5F1F4FFFE3CE
S11318B0F9830DC0833631F0833771F0833509F035
S11318C057C021C0F801808189830E5F1F4F4424D3
S11318D04394512C540114C03801F2E06F0E711C72
S11318E0F801A080B18026FF03C0652D70E002C01E
S11318F06FEF7FEFC5012C876DD12C0183012C85FF
S11319002F77222E16C03801F2E06F0E711CF801F9
S1131910A080B18026FF03C0652D70E002C06FEF88
S11319207FEFC5012C8744D12C012C852068222E01
S1131930830123FC19C0832D90E048165906A0F4B6
S1131940B70180E290E051D13A94F5CFF50127FC3C
S1131950859127FE81915F01B70190E046D1311056
S11319603A94F1E04F1A51084114510479F7DEC05A
S1131970843611F0893631F5F80127FF07C06081FC
S11319807181828193810C5F1F4F08C060817181D6
S1131990882777FD8095982F0E5F1F4F2F76B22EE4
S11319A097FF09C090958095709561957F4F8F4FF3
S11319B09F4F2068B22E2AE030E0A40148D1A82E1F
S11319C0A81843C0853729F42F7EB22E2AE030E0D0
S11319D025C0F22FF97FBF2E8F36C1F018F4883559
S11319E079F0ADC0803719F0883721F0A8C02F2FC7
S11319F02061B22EB4FE0DC08B2D8460B82E09C0B8
S1131A0024FF0AC09F2F9660B92E06C028E030E05C
S1131A1005C020E130E002C020E132E0F801B7FE69
S1131A2007C060817181828193810C5F1F4F06C062
S1131A306081718180E090E00E5F1F4FA40107D1A7
S1131A40A82EA818FB2DFF77BF2EB6FE0BC02B2D9A
S1131A502E7FA51450F4B4FE0AC0B2FC08C02B2D8E
S1131A602E7E05C07A2C2B2D03C07A2C01C0752C38
S1131A7024FF0DC0FE01EA0DF11D8081803311F4B5
S1131A80297E09C022FF06C07394739404C0822F78
S1131A90867809F0739423FD12C020FF06C05A2CE7
S1131AA0731418F4530C5718732C731460F4B7019F
S1131AB080E290E02C8799D073942C85F6CF731430
S1131AC010F4371801C0312C24FF11C0B70180E392
S1131AD090E02C878AD02C8522FF16C021FF03C0FA
S1131AE088E590E002C088E790E0B7010CC0822F3F
S1131AF0867851F021FD02C080E201C08BE227FD0F
S1131B008DE2B70190E071D0A51430F4B70180E301
S1131B1090E06BD05A94F8CFAA94F401EA0DF11D29
S1131B208081B70190E061D0A110F6CF332009F491
S1131B305DCEB70180E290E058D03A94F7CFF70138
S1131B408681978102C08FEF9FEF2C960FB6F89491
S1131B50DEBF0FBECDBFDF91CF911F910F91FF90DC
S1131B60EF90DF90CF90BF90AF909F908F907F9039
S1131B706F905F904F903F902F9008950F931F9315
S1131B80CF93DF93869F8001879F100D969F100D42
S1131B901124C80156DCEC01009721F0A80160E093
S1131BA070E011D0CE01DF91CF911F910F91089574
S1131BB0FC010590615070400110D8F78095909514
S1131BC08E0F9F1F0895DC0101C06D93415050405A
S1131BD0E0F70895FC016150704001900110D8F7BE
S1131BE0809590958E0F9F1F08950F931F93CF9309
S1131BF0DF93182F092FEB018B8181FD03C08FEF39
S1131C009FEF20C082FF10C04E815F812C813D81F7
S1131C10421753077CF4E881F9819F012F5F3F4FFE
S1131C2039832883108306C0E885F985812F1995A7
S1131C30892B29F72E813F812F5F3F4F3F832E83CE
S1131C40812F902FDF91CF911F910F910895FA0169
S1131C50AA27283051F1203181F1E8946F936E7FE7
S1131C606E5F7F4F8F4F9F4FAF4FB1E03ED0B4E0D8
S1131C703CD0670F781F891F9A1FA11D680F791F19
S1131C808A1F911DA11D6A0F711D811D911DA11D2A
S1131C9020D009F468943F912AE0269F112430193A
S1131CA0305D3193DEF6CF010895462F4770405DD5
S1131CB04193B3E00FD0C9F7F6CF462F4F70405D84
S1131CC04A3318F0495D31FD4052419302D0A9F7DF
S1131CD0EACFB4E0A6959795879577956795BA95D9
S1131CE0C9F700976105710508959B01AC010A2E9F
S1131CF006945795479537952795BA95C9F7620F76
S1111D00731F841F951FA01D0895F894FFCF34
S1131D0E0000AA042000640000803F0000803FF819
S1131D1E494E2074686520697372004D45535341D2
S1131D2E47453A200A49443A2025640A4C656E67B1
S1131D3E74683A2025640A446174613A200025646B
S1131D4E20004170705F64617461203D2025640A37
S1131D5E0A004150502044415441205245545420CD
S1131D6E0A00534F4C454E4F49445F656E61626C99
S1131D7E656400534552564F20494E5055543A20EF
S1131D8E25640A0A0076616C203D2025640A004D04
S1131D9E43503235313520696E204E4F5420696ED2
S1131DAE20636F6E66696775726174696F6E206DFC
S1131DBE6F64652061667465722072657365742143
S1131DCE0063757272656E7420706F73203D2025EA
S1131DDE640A2074617267657420706F73202564C1
S1131DEE200A007461726765745F706F732B3230F2
S1131DFE203C2063757272656E745F706F7300742D
S1131E0E61726765745F706F732D35203E20637544
S1131E1E7272656E745F706F73006E757468696943
S1131E2E696E0074617267657420706F73203D2053
S1131E3E25640A2063757272656E7420706F732048
S1131E4E3D2025640A206D6F746F72207265616483
S1131E5E203D2025640A20726F746D617825640A12
S1131E6E20726F746D696E25640A00474F494E20C7
S1131E7E52494748542057524F4F4D0A00726F74BF
S1131E8E5F6D696E206265666F7265203D20256404
S1131E9E0A00494E20544845205348495400726F55
S1131EAE745F6D696E203D2025640A00726F745F45
S1131EBE6D6178203D2025640A005049445F7363A8
S1131ECE616C6528726F745F6D696E29203D2025E3
S1131EDE640A005049445F7363616C6528726F74C1
S1131EEE5F6D617829203D2025640A0A0A0066F890
S1131EFE722073656900736574706F696E74203D2A
S1131F0E2025640A0063757272656E745F65727261
S1131F1E6F72203D2025640A20636F6E74726F6C9D
S1131F2E206F7574707574203D2025640A206572C7
S1131F3E726F7220696E74677261746564203D20DD
S1131F4E25640A006265666F726520706964206993
S1131F5E6E69740A0048656C6C6F006D73672E644D
S1131F6E6174615B325D203D2025640A0050494452
S1131F7E5F636F6E74726F6C286D736729203D20DA
S1091F8E25640A0A0000AC
S9030000FC
