:10000000C2C00000DFC00000DDC00000DCC0000096
:10001000D9C00000D7C00000D5C00000D3C0000088
:10002000D1C00000CFC00000CDC00000CBC0000098
:10003000C9C00000C7C00000C5C00000B2C10000B8
:10004000C1C00000BFC00000BDC00000BBC00000B8
:10005000B9C00000B7C00000B5C00000B3C00000C8
:10006000B1C000005CC30000ADC00000ABC0000028
:10007000A9C00000F1C00000A5C00000A3C000009E
:10008000A1C000009FC000009DC000009BC00000F8
:1000900099C0000097C0000095C0000092C2000007
:1000A00091C000008FC000008DC000008BC0000018
:1000B00089C0000087C0000085C0000083C0000028
:1000C00081C000007FC000007DC000007BC0000038
:1000D00079C0000077C0000075C0000073C0000048
:1000E00071C00000FC024E034E034E034E034E034C
:1000F0004E034E03FC024E034E034E034E034E03CB
:100100004E034E03FE024E034E034E034E034E03B8
:100110004E034E034E034E034E034E034E034E0357
:100120004E034E03FE024E034E034E034E034E0398
:100130004E034E034E034E034E034E034E034E0337
:100140004E034E034A034E034E034E034E034E032B
:100150004E034E0327034E034E034E034E034E033E
:100160004E034E034E034E034E034E034E034E0307
:100170004E034E031B034E034E034E034E034E032A
:100180004E034E03390311241FBECFEFD1E2DEBF71
:10019000CDBF00E00CBF12E0A0E0B2E0E8E7F0E184
:1001A00000E00BBF02C007900D92A638B107D9F747
:1001B00022E0A6E8B2E001C01D92AE39B207E1F735
:1001C000DAD258C71DCF1F920F920FB60F9211248B
:1001D000109293020F900FBE0F901F90189571D040
:1001E00040E664E680E654D040E060EE8FE050D018
:1001F0004FEF61E08BE24CD04FEF60E680E648C005
:1002000008957894B2C10895CF93DF9300D0CDB70D
:10021000DEB79EE599831A828B8363E0CE01019657
:10022000AED10F900F900F90DF91CF910895EAE734
:10023000F0E08081876880838098ECE7F0E080813F
:10024000806480837894EAE7F0E08081886080832E
:1002500080818F7E808308951F920F920FB60F9238
:1002600011248F9381E0809386028F910F900FBEAF
:100270000F901F901895CF93C82F73D183E068D14A
:100280008C2F66D16AD1C82F6ED18C2FCF91089553
:100290001F93CF93DF93182FD62FC42F62D185E001
:1002A00057D1812F55D18D2F53D18C2F51D15BD167
:1002B000DF91CF911F91089554D180EC49D153C162
:1002C0000895CF933CD1F8DF8FE99FE00197F1F7D4
:1002D00000C0000041E061E08BE2DADF8EE0CBDFBE
:1002E000C82F1F928F9327E032E03F932F93CFD3F5
:1002F000C07E0F900F900F900F90C03829F081E1D1
:1003000092E0D6D381E001C080E0CF910895E1E092
:10031000F1E080818A67808328D1E2E0F1E080818A
:100320008261808380818F7B8083808180648083F1
:1003300080818F7D80838081877F80830895E2E044
:10034000F1E080818F7D80838081877F808385E855
:100350008A95F1F7000020910601808188608083F2
:1003600085E88A95F1F700008091060190819F7BD6
:10037000908390819064908390819062908390E0CC
:10038000922B0895613031F4E2E0F1E090819260C7
:10039000908305C0E2E0F1E090819D7F908334CFAF
:1003A00008951F920F920FB60F9211240F900FBE57
:1003B0000F901F9018950F931F93CF93DF9360E0DA
:1003C0008FE7E0DF2FEF89E698E1215080409040F1
:1003D000E1F700C0000060E080E0D4DFB0DF909380
:1003E0008A02809389022FEF87EA91E621508040AC
:1003F0009040E1F700C0000061E08FE7C3DF2FEF1E
:1004000089E698E1215080409040E1F700C000006B
:1004100061E080E0B7DF93DF9093880280938702EA
:100420008EDF9F938F9383E492E09F938F932FD3DC
:100430002FEF87EA91E6215080409040E1F700C01D
:10044000000060E08FE79EDF2FEF8AE693E0215007
:1004500080409040E1F700C0000060E080E092DF63
:100460000F900F900F900F9006E512E0C0E7D2E0DA
:1004700016C03F932F931F930F9309D360DF9F9371
:100480008F93DF93CF9303D360E08FE77BDF8DB74C
:100490009EB708960FB6F8949EBF0FBE8DBF4FDF74
:1004A0004091890250918A022091870230918802FE
:1004B000240F351F332314F42F5F3F4F35952795B5
:1004C00082179307B0F260E080E05CDFF89481E08F
:1004D0008093700087E08093B1007894DF91CF9192
:1004E0001F910F910895A0E8B0E08C918E7F8C93BE
:1004F0008C9182608C93E1E8F0E080818860808359
:100500008081806180838C9180688C9380818460FD
:10051000808380818D7F808380818160808388E378
:1005200091E0909387008093860085E190E090931E
:10053000890080938800259A0895249A0895219A25
:10054000229A279A209A23988CB581658CBD0895AC
:100550008EBD0DB407FEFDCF089581E0F9DF8EB5A5
:1005600008952F9808952F9A08958CE08093B800ED
:100570008FEF8093BB0084E08093BC000895ECEB88
:10058000F0E0208120FDFDCF60938D02FC012081F1
:1005900020938E0220FD0CC0623050F0DC011196D9
:1005A000EFE8F2E081E09D9191938F5F8613FBCF9E
:1005B00010928C0288EF8093060285EA8093BC003B
:1005C00008951F920F920FB60F9211240BB60F923F
:1005D0002F933F938F939F93AF93BF93EF93FF938B
:1005E0008091B90090E0FC013897E135F10508F001
:1005F00055C0EE58FF4FD4C010928B02E0918B0291
:1006000080918D02E81770F481E08E0F80938B0249
:10061000F0E0E257FD4F80818093BB0085E8809336
:10062000BC0043C080918C02816080938C0284E97D
:100630008093BC003AC0E0918B0281E08E0F8093E2
:100640008B028091BB00F0E0E257FD4F8083209148
:100650008B0230E080918D0290E0019728173907D6
:1006600024F485EC8093BC0020C085E88093BC0016
:100670001CC08091BB00E0918B02F0E0E257FD4F7F
:10068000808380918C02816080938C0284E98093C6
:10069000BC000BC085EA8093BC0007C08091B90004
:1006A0008093060284E08093BC00FF91EF91BF919C
:1006B000AF919F918F913F912F910F900BBE0F9013
:1006C0000FBE0F901F9018959093C5008093C400A3
:1006D00088E18093C1008EE08093C200F894E1EC41
:1006E000F0E0808180688083E0ECF0E080818068C9
:1006F0008083789481E090E00895E0ECF0E09081D0
:1007000095FFFDCF8093C60083E090E00895E0EC74
:10071000F0E080818823ECF78091C60008951F9255
:100720000F920FB60F9211240BB60F922F933F9397
:100730004F935F936F937F938F939F93AF93BF93E9
:10074000EF93FF9381E0809392028091C600D5DF02
:10075000FF91EF91BF91AF919F918F917F916F9199
:100760005F914F913F912F910F900BBE0F900FBE55
:100770000F901F901895F8948FEF81B987E690E05D
:10078000A3DF67E873E08DE793E037D128DDABDEC8
:1007900038DDBDDD4CDDD1DE0EDE80E090E0089579
:1007A000EE0FFF1F0590F491E02D1994CF93DF9386
:1007B0008230910510F482E090E0E0919602F09191
:1007C000970220E030E0A0E0B0E0309739F14081BE
:1007D000518148175907B8F04817590771F48281B9
:1007E0009381109729F013969C938E9312972CC0A7
:1007F000909397028093960227C02115310531F01E
:100800004217530718F0A901DB0101C0EF019A015B
:10081000BD01DF010280F381E02DD7CF2115310525
:10082000F9F0281B390B2430310580F48A819B8133
:100830006115710521F0FB019383828304C09093BD
:10084000970280939602FE01329644C0FE01E20FA9
:10085000F31F8193919322503109398328833AC041
:100860002091940230919502232B41F420910202B1
:10087000309103023093950220939402209100025C
:10088000309101022115310541F42DB73EB7409159
:10089000040250910502241B350BE0919402F09163
:1008A0009502E217F307A0F42E1B3F0B2817390718
:1008B00078F0AC014E5F5F4F2417350748F04E0FBC
:1008C0005F1F50939502409394028193919302C0CD
:1008D000E0E0F0E0CF01DF91CF910895CF93DF9377
:1008E000009709F487C0FC01329713821282C091ED
:1008F0009602D0919702209781F420813181280FB0
:10090000391F80919402909195028217930779F58F
:10091000F0939502E09394026DC0DE0120E030E098
:10092000AE17BF0750F412964D915C9113979D013D
:100930004115510509F1DA01F3CFB383A283408158
:100940005181840F951F8A179B0771F48D919C919B
:100950001197840F951F02969183808312968D9133
:100960009C911397938382832115310529F4F09389
:100970009702E09396023EC0D9011396FC93EE9342
:1009800012974D915D91A40FB51FEA17FB0779F4FB
:1009900080819181840F951F0296D90111969C93B5
:1009A0008E938281938113969C938E931297E0E0AD
:1009B000F0E08A819B81009719F0FE01EC01F9CFEC
:1009C000CE01029628813981820F931F20919402D3
:1009D000309195022817390769F4309729F410925D
:1009E00097021092960202C013821282D09395024F
:1009F000C0939402DF91CF9108950F931F93CF93EB
:100A0000DF93EC018B01009731F46115710519F446
:100A100080E090E037C06EE070E081E090E063D26B
:100A2000FC010097A9F380E883830115110571F09B
:100A30001387028781E883838091980290919902BD
:100A4000892B21F4F0939902E09398022097C9F042
:100A5000D187C08783818260838380919A0290913D
:100A60009B02892B71F4F0939B02E0939A02809190
:100A70009C0290919D02892B21F4F0939D02E093BA
:100A80009C02CF01DF91CF911F910F910895CF93D9
:100A9000DF93CDB7DEB7FE01369661917191AF015C
:100AA00080919A0290919B0230D0DF91CF9108956E
:100AB0000F931F93CF93DF93E0919A02F0919B02E3
:100AC000238121FF1BC0EC0100E010E089916091BF
:100AD0009A0270919B02DB011896ED91FC91199797
:100AE000882331F01995892B89F30FEF1FEFEECF93
:100AF0008AE01995892B11F4C80102C08FEF9FEF8E
:100B0000DF91CF911F910F9108952F923F924F92B5
:100B10005F926F927F928F929F92AF92BF92CF928D
:100B2000DF92EF92FF920F931F93CF93DF93CDB796
:100B3000DEB72C970FB6F894DEBF0FBECDBF7C0199
:100B40006B018A01FC0117821682838181FFB0C18B
:100B5000CE0101964C01F7019381F60193FD859139
:100B600093FF81916F01882309F49EC1853239F486
:100B700093FD859193FF81916F01853221F4B70137
:100B800090E0E8D1E8CF512C312C20E02032A0F4C5
:100B90008B3269F030F4803259F0833269F420618D
:100BA0002CC08D3239F0803339F4216026C02260A8
:100BB000246023C0286021C027FD27C030ED380FF6
:100BC0003A3078F426FF06C0FAE05F9E300D11241B
:100BD000532E13C08AE0389E300D1124332E20622C
:100BE0000CC08E3221F426FD5FC1206406C08C3615
:100BF00011F4206802C0883641F4F60193FD859116
:100C000093FF81916F018111C1CF982F9F7D9554E2
:100C1000933028F40C5F1F4FFFE3F9830DC0833638
:100C200031F0833771F0833509F057C021C0F801E6
:100C3000808189830E5F1F4F44244394512C5401BB
:100C400014C03801F2E06F0E711CF801A080B18071
:100C500026FF03C0652D70E002C06FEF7FEFC50176
:100C60002C876DD12C0183012C852F77222E16C065
:100C70003801F2E06F0E711CF801A080B18026FFF0
:100C800003C0652D70E002C06FEF7FEFC5012C87B8
:100C900044D12C012C852068222E830123FC19C00D
:100CA000832D90E048165906A0F4B70180E290E049
:100CB00051D13A94F5CFF50127FC859127FE81911A
:100CC0005F01B70190E046D131103A94F1E04F1A3C
:100CD00051084114510479F7DEC0843611F0893689
:100CE00031F5F80127FF07C060817181828193810E
:100CF0000C5F1F4F08C060817181882777FD809548
:100D0000982F0E5F1F4F2F76B22E97FF09C0909538
:100D10008095709561957F4F8F4F9F4F2068B22EC1
:100D20002AE030E0A40148D1A82EA81843C0853796
:100D300029F42F7EB22E2AE030E025C0F22FF97F71
:100D4000BF2E8F36C1F018F4883579F0ADC08037EA
:100D500019F0883721F0A8C02F2F2061B22EB4FEE1
:100D60000DC08B2D8460B82E09C024FF0AC09F2FB0
:100D70009660B92E06C028E030E005C020E130E0E2
:100D800002C020E132E0F801B7FE07C06081718146
:100D9000828193810C5F1F4F06C06081718180E06A
:100DA00090E00E5F1F4FA40107D1A82EA818FB2DBD
:100DB000FF77BF2EB6FE0BC02B2D2E7FA51450F44F
:100DC000B4FE0AC0B2FC08C02B2D2E7E05C07A2CC2
:100DD0002B2D03C07A2C01C0752C24FF0DC0FE0101
:100DE000EA0DF11D8081803311F4297E09C022FFB4
:100DF00006C07394739404C0822F867809F07394AC
:100E000023FD12C020FF06C05A2C731418F4530C93
:100E10005718732C731460F4B70180E290E02C87AC
:100E200099D073942C85F6CF731410F4371801C041
:100E3000312C24FF11C0B70180E390E02C878AD0C9
:100E40002C8522FF16C021FF03C088E590E002C078
:100E500088E790E0B7010CC0822F867851F021FD21
:100E600002C080E201C08BE227FD8DE2B70190E075
:100E700071D0A51430F4B70180E390E06BD05A94A0
:100E8000F8CFAA94F401EA0DF11D8081B70190E03A
:100E900061D0A110F6CF332009F45DCEB70180E216
:100EA00090E058D03A94F7CFF7018681978102C03D
:100EB0008FEF9FEF2C960FB6F894DEBF0FBECDBF1D
:100EC000DF91CF911F910F91FF90EF90DF90CF9026
:100ED000BF90AF909F908F907F906F905F904F905A
:100EE0003F902F9008950F931F93CF93DF93869F8A
:100EF0008001879F100D969F100D1124C80156DCAC
:100F0000EC01009721F0A80160E070E011D0CE0163
:100F1000DF91CF911F910F910895FC0105906150D1
:100F200070400110D8F7809590958E0F9F1F0895FF
:100F3000DC0101C06D9341505040E0F70895FC0181
:100F40006150704001900110D8F7809590958E0FF8
:100F50009F1F08950F931F93CF93DF93182F092F8F
:100F6000EB018B8181FD03C08FEF9FEF20C082FFDB
:100F700010C04E815F812C813D81421753077CF464
:100F8000E881F9819F012F5F3F4F398328831083C8
:100F900006C0E885F985812F1995892B29F72E81BF
:100FA0003F812F5F3F4F3F832E83812F902FDF9113
:100FB000CF911F910F910895FA01AA27283051F17E
:100FC000203181F1E8946F936E7F6E5F7F4F8F4F7A
:100FD0009F4FAF4FB1E03ED0B4E03CD0670F781FD9
:100FE000891F9A1FA11D680F791F8A1F911DA11DBE
:100FF0006A0F711D811D911DA11D20D009F46894F7
:101000003F912AE0269F11243019305D3193DEF69E
:10101000CF010895462F4770405D4193B3E00FD054
:10102000C9F7F6CF462F4F70405D4A3318F0495D3F
:1010300031FD4052419302D0A9F7EACFB4E0A69522
:101040009795879577956795BA95C9F70097610544
:10105000710508959B01AC010A2E0694579547959A
:1010600037952795BA95C9F7620F731F841F951F8F
:08107000A01D0895F894FFCFC4
:1010780000009E022000F876616C203D2025640A5D
:10108800004D43503235313520696E204E4F542083
:10109800696E20636F6E66696775726174696F6ED9
:1010A800206D6F6465206166746572207265736572
:1010B8007421004D4F544F525F7265616428292096
:1010C8003D2025640A0028726F745F6D61782B7269
:1010D8006F745F6D696E292F32203D2025640A00E8
:1010E8004D4F544F525F726561642829203D202579
:0610F800640A0A0A000070
:00000001FF
