:10000000C2C00000E0C00000DEC00000DDC0000093
:10001000DAC00000D8C00000D6C00000D4C0000084
:10002000DFC00000D0C00000CEC00000CCC0000087
:10003000CAC00000C8C00000C6C000000BC300005A
:10004000C2C00000C0C00000BEC00000BCC00000B4
:10005000BAC00000B8C00000B6C00000B4C00000C4
:10006000B2C00000B0C00000AEC00000ACC00000D4
:10007000AAC0000005C20000A6C00000A4C0000085
:10008000A2C00000A0C000009EC000009CC00000F4
:10009000B3C1000098C0000096C0000076C6000002
:1000A00092C0000090C000000FC600008CC000008D
:1000B0008AC0000088C0000086C0000084C0000024
:1000C00082C0000080C000007EC000007CC0000034
:1000D0007AC0000078C0000076C0000074C0000044
:1000E00072C00000E00632073207320732073207DB
:1000F00032073207E006320732073207320732078B
:1001000032073207E2063207320732073207320778
:100110003207320732073207320732073207320717
:1001200032073207E2063207320732073207320758
:1001300032073207320732073207320732073207F7
:10014000320732072E0732073207320732073207EB
:10015000320732070B0732073207320732073207FE
:1001600032073207320732073207320732073207C7
:1001700032073207FF0632073207320732073207EB
:10018000320732071D0711241FBECFEFD1E2DEBFB9
:10019000CDBF00E00CBF13E0A0E0B2E0E2EBFDE178
:1001A00000E00BBF02C007900D92A63CB107D9F743
:1001B00023E0A6ECB3E001C01D92A93EB207E1F72F
:1001C000BBD60C94D70E8FC61F920F920FB60F920C
:1001D00011241092DE030F900FBE0F901F90189500
:1001E0001F920F920FB60F9211240BB60F922F93FE
:1001F0003F934F935F936F937F938F939F93AF93AF
:10020000BF93EF93FF9383E192E09F938F930E94BC
:10021000E40B0F900F90FF91EF91BF91AF919F91E1
:100220008F917F916F915F914F913F912F910F909F
:100230000BBE0F900FBE0F901F90189556D140E641
:1002400064E680E639D140E060EE8FE035D14FEFD3
:1002500061E08BE231D14FEF60E680E62DC1089579
:100260001F93CF93DF93EC018CE219D180FF34C050
:100270002FEF80E792E0215080409040E1F700C0EE
:10028000000081E60CD1182F82E609D1482F429553
:1002900046954770212F30E0C901880F991F880FBC
:1002A000991F880F991F842B9983888385E6F7D03F
:1002B0008F708A83882361F010E086E6810FEFD08B
:1002C000FE01E10FF11D83831F5F8A811817A8F3D8
:1002D00040E061E08CE2F0D0DF91CF911F91089572
:1002E000CF92DF92EF92FF920F931F93CF93DF9302
:1002F000CDB7DEB72B970FB6F894DEBF0FBECDBFDC
:10030000E982FA82C02E0B831C832D833E834F83A8
:10031000588769877A878B871F920F938A818F937B
:1003200089818F938EE192E09F938F930E94E40BDB
:100330000F900F900F900F900F900F900023B9F037
:100340007E0184E0E80EF11CD12C01E412E0F701FB
:1003500081917F011F928F931F930F930E94E40B53
:10036000D3940F900F900F900F90DC10F0CF88E88F
:1003700093E00E94F50B2B960FB6F894DEBF0FBEEC
:10038000CDBFDF91CF911F910F91FF90EF90DF9044
:10039000CF9008957894CDC40895CF93DF9300D083
:1003A000CDB7DEB79EE599831A828B8363E0CE01D9
:1003B0000196C9D40F900F900F90DF91CF910895BF
:1003C000CF93DF93CCECD0E019821882539A5B98DC
:1003D000AAECB0E020EC2C93E9ECF0E028E12083DB
:1003E0009093CD0088838EE08C9380818068808399
:1003F0007894DF91CF9108951F920F920FB60F92CC
:1004000011240BB60F928F93EF93FF931092C703B3
:100410008091CE008093C603E8ECF0E080818F7776
:100420008083FF91EF918F910F900BBE0F900FBEC5
:100430000F901F901895EAE7F0E08081876880832D
:100440008098ECE7F0E080818064808380818F7702
:1004500080838081807E8083EBE7F0E08081877FEE
:1004600080837894EAE7F0E08081886080838081EF
:100470008F7E8083ECE7F0E0808180628083089546
:100480001F920F920FB60F9211248F9381E08093E9
:10049000C8038F910F900FBE0F901F901895CF93A8
:1004A000C82F0ED483E003D48C2F01D405D4C82FD9
:1004B00009D48C2FCF9108951F93CF93DF93182FDA
:1004C000D62FC42FFDD385E0F2D3812FF0D38D2F0B
:1004D000EED38C2FECD3F6D3DF91CF911F910895FB
:1004E000EFD380ECE4D3EEC30895CF93D7D3F8DFF6
:1004F0008FE99FE00197F1F700C0000041E061E063
:100500008BE2DADF8EE0CBDFC82F1F928F9325E4DA
:1005100032E03F932F930E94E40BC07E0F900F9028
:100520000F900F90C03831F08FE492E00E94F50BED
:1005300081E001C080E0CF910895E1E0F1E08081A9
:100540008A678083F6D3E2E0F1E080818261808374
:1005500080818F7B808380818064808380818F7D98
:1005600080838081877F80830895E2E0F1E080814D
:100570008F7D80838081877F808385E88A95F1F7EE
:1005800000002091060180818860808385E88A953B
:10059000F1F700008091060190819062908390E0D5
:1005A000922B0895613031F4E2E0F1E090819260A5
:1005B000908305C0E2E0F1E090819D7F9083EDCED5
:1005C0000895FF920F931F93CF93DF93EC01CDDF3C
:1005D00007D2F82E082F10E0C8DF1F921F921F923B
:1005E0001F929F938F931F92FF92DF93CF9381E887
:1005F00092E09F938F930E94E40B8DB79EB70C9669
:100600000FB6F8949EBF0FBE8DBF0C171D0768F480
:10061000E2E0F1E080818260808302C08FE7BDDE8E
:10062000A4DF8C179D07D0F30FC0C017D10760F46B
:10063000E2E0F1E080818D7F808302C08FE7ADDE54
:1006400094DFC817D907D0F3DF91CF911F910F9195
:10065000FF9008951F920F920FB60F9211240BB6C0
:100660000F928F929F92AF92BF92CF92DF92EF92B2
:10067000FF921F932F933F934F935F936F937F93BB
:100680008F939F93AF93BF93CF93DF93EF93FF939A
:1006900089EC92E09F938F930E94E40BC091C90371
:1006A000D091CA0362DF482F6091D3037091D403C5
:1006B0008FEF90E0EBD646039001479F300D112459
:1006C000C21BD109BE01882777FD8095982FC7D519
:1006D0006B017C01209106023091070240910802D3
:1006E000509109021091D0030F900F901C161D0617
:1006F0009CF469D64B015C01612F772767FD7095EB
:10070000872F972FACD59B01AC01C501B401A4D4B0
:1007100073D56093D00302C01092D00320910E02D3
:1007200030910F024091100250911102C701B601A1
:100730004AD66B017C016091D003772767FD7095E5
:10074000872F972F8CD520910A0230910B02409170
:100750000C0250910D0237D69B01AC01C701B601C6
:100760007BD44AD56B017C01CB01D093CF03C093DE
:10077000CE0399236CF41092CD031092CC036B3608
:100780002FEF72078CF0882799278C199D0910C0CC
:1007900021E030E03093CD032093CC03663971051E
:1007A00034F086E990E004C086E990E001C0C6011B
:1007B0006091CC037091CD03F5DE2091D003822FA0
:1007C000992787FD90959F932F93DF92CF92DF9388
:1007D000CF938EEC92E09F938F93F6D7C601F1DE14
:1007E0008DB79EB708960FB6F8949EBF0FBE8DBF0B
:1007F000FF91EF91DF91CF91BF91AF919F918F9139
:100800007F916F915F914F913F912F911F91FF9039
:10081000EF90DF90CF90BF90AF909F908F900F9010
:100820000BBE0F900FBE0F901F901895CF93DF93C4
:10083000F894B0DD8DE093E09F938F93C5D761E08E
:100840008FE7B0DE2FEF8BE49DE121508040904098
:10085000E1F700C0000061E080E0A4DE86DE9F9347
:100860008F9388E193E09F938F93AED72FEF89EF1B
:1008700090E0215080409040E1F700C000008DE200
:1008800093E09F938F93A0D7E2E0F1E080818F7B8C
:1008900080832FEF89EF90E0215080409040E1F776
:1008A00000C000008081806480835FDE9093D2036B
:1008B0008093D1035ADE9F938F9389E393E09F93B4
:1008C0008F9382D72FEF83ED90E3215080409040AB
:1008D000E1F700C0000060E08FE764DE2FEF8BE4FB
:1008E0009DE1215080409040E1F700C0000060E0B1
:1008F00080E058DE3ADE9F938F9389E493E09F93E4
:100900008F9362D732DE9093D4038093D3032FEF7B
:1009100087EA91E6215080409040E1F700C0000056
:100920002091D103CFEFD0E06091D3037091D40335
:10093000CE01ACD52603C001279F900D1124992725
:100940009F938F9387E593E09F938F933DD720915B
:10095000D3037091D403CE01622F98D52603C00132
:10096000279F900D112499279F938F9380E793E001
:100970009F938F9329D72091D3033091D4033323AE
:100980001CF43195219531098091D1039091D203C6
:1009900099231CF4919581959109820F931F6FEF14
:1009A00070E074D56093CB0381E08093700087E0A2
:1009B0008093B1008BE893E09F938F9305D7789451
:1009C0008DB79EB74A960FB6F8949EBF0FBE8DBFE7
:1009D000DF91CF9108959093CA038093C90308953E
:1009E000282F6091D3037091D4038FEF90E04ED500
:1009F000269F802D112408958F929F92AF92BF92CF
:100A0000CF92DF92EF92FF920F931F93CF93DF93DA
:100A1000CDB7DEB72B970FB6F894DEBF0FBECDBFB4
:100A20003E8382D1BC01882777FD8095982F17D40B
:100A30006093060270930702809308029093090264
:100A40000E8110E092DD482F6091D3037091D403A2
:100A50008FEF90E01BD546039001479F300D112486
:100A6000021B1109B801882777FD8095982FF7D3CD
:100A70006B017C012091060230910702409108022F
:100A800050910902A0D44B015C016091D0037727FB
:100A900067FD7095872F972FE2D39B01AC01C501AD
:100AA000B401DAD2A9D3B62E6093D00320910E02FE
:100AB00030910F024091100250911102C701B6010E
:100AC00082D46B017C016B2D772767FD7095872F92
:100AD000972FC5D320910A0230910B0240910C024E
:100AE00050910D0270D49B01AC01C701B601B4D284
:100AF00083D31093CF030093CE03772314F460E0E5
:100B000070E07B016F3F710521F01CF0EE24EA9448
:100B1000F12C8B2D992787FD90959F93BF92FF9283
:100B2000EF921F930F938EEC92E09F938F934CD68E
:100B30000FB6F894DEBF0FBECDBFC7012B960FB620
:100B4000F894DEBF0FBECDBFDF91CF911F910F9103
:100B5000FF90EF90DF90CF90BF90AF909F908F90DD
:100B60000895A0E8B0E08C918E7F8C938C91826088
:100B70008C93E1E8F0E080818860808380818061EF
:100B800080838C9180688C93808184608083808155
:100B90008D7F808380818160808388E391E0909362
:100BA00087008093860085E190E090938900809390
:100BB0008800259A0895EF92FF920F931F93CF9389
:100BC000DF93CDB7DEB72B970FB6F894DEBF0FBE1D
:100BD000CDBF1C8388E893E008D641E061E08CE259
:100BE0006BDC6C8170E080E090E037D320E030E097
:100BF0004FE753E499D223E333E343E451E4E3D3EF
:100C00002AE939E949E751E427D22AE939E949EDE6
:100C10005FE321D22B960FB6F894DEBF0FBECDBF97
:100C2000DF91CF911F910F91FF90EF900895CF9298
:100C3000DF92EF92FF926B017C0120E030E04CEEFE
:100C400051E4BDD388233CF08DE190E0909389007E
:100C50008093880018C027E636E64EE551E4C701C8
:100C6000B6015ED218163CF08DE090E090938900BA
:100C70008093880008C0C701B601C3D270E07093AA
:100C8000890060938800FF90EF90DF90CF900895E7
:100C9000249A08952C9A08952C980895219A229ABE
:100CA000279A209A23988CB581658CBD08958EBDB6
:100CB0000DB407FEFDCF089581E0F9DF8EB50895EC
:100CC0002F9808952F9A08951F920F920FB60F92A2
:100CD00011248F939F938091D5039091D603019611
:100CE0009093D6038093D5038FE99FE00197F1F7A6
:100CF00000C000009F918F910F900FBE0F901F902A
:100D00001895E1EAF0E0808188608083789489E03A
:100D10009DE39093A9008093A8007894E2E7F0E027
:100D200080818260808308958091D5039091D6035D
:100D300008958CE08093B8008FEF8093BB0084E02F
:100D40008093BC000895ECEBF0E0208120FDFDCF06
:100D50006093D903FC0120812093DA0320FD0CC0AD
:100D6000623050F0DC011196EBEDF3E081E09D91F3
:100D700091938F5F8613FBCF1092D80388EF8093F7
:100D8000120285EA8093BC0008951F920F920FB65D
:100D90000F9211240BB60F922F933F938F939F9333
:100DA000AF93BF93EF93FF938091B90090E0FC0164
:100DB0003897E135F10508F055C0EE58FF4F79C37B
:100DC0001092D703E091D7038091D903E81770F40C
:100DD00081E08E0F8093D703F0E0E652FC4F8081D4
:100DE0008093BB0085E88093BC0043C08091D8030A
:100DF00081608093D80384E98093BC003AC0E0917D
:100E0000D70381E08E0F8093D7038091BB00F0E081
:100E1000E652FC4F80832091D70330E08091D903C4
:100E200090E001972817390724F485EC8093BC00E3
:100E300020C085E88093BC001CC08091BB00E0917D
:100E4000D703F0E0E652FC4F80838091D8038160A5
:100E50008093D80384E98093BC000BC085EA80931B
:100E6000BC0007C08091B9008093120284E0809397
:100E7000BC00FF91EF91BF91AF919F918F913F91F6
:100E80002F910F900BBE0F900FBE0F901F901895D3
:100E90009093C5008093C40088E18093C1008EE0E8
:100EA0008093C200F894E1ECF0E080818068808358
:100EB000E0ECF0E0808180688083789481E090E0CD
:100EC0000895E0ECF0E0908195FFFDCF8093C6009F
:100ED00083E090E00895E0ECF0E080818823ECF777
:100EE0008091C60008951F920F920FB60F921124A1
:100EF0000BB60F922F933F934F935F936F937F9314
:100F00008F939F93AF93BF93EF93FF9383E993E006
:100F10006CD4FF91EF91BF91AF919F918F917F9191
:100F20006F915F914F913F912F910F900BBE0F905A
:100F30000FBE0F901F901895CF93DF93CDB7DEB7FC
:100F40002B970FB6F894DEBF0FBECDBFF8948FEF8E
:100F500081B987E690E09CDF87E690E031DA6BE6C6
:100F600077E081E697E0E6D369D9FBDD13DAE5DACD
:100F700062DA8EDEC6DE5ADC89E993E09F938F93B6
:100F800023D40F900F900F2EF5EACF2EF3E0DF2E33
:100F9000F02D992493940F2EFBEAAF2EF3E0BF2E91
:100FA000F02DDF92CF9210D41A8219829B821C827C
:100FB000CE01019655D98FE39CE90197F1F700C066
:100FC0000000E980FA800B811C812D813E814F81D8
:100FD000588569857A858B8583D90F900F90898193
:100FE0009A8184369105E9F68B818730D1F68E811E
:100FF00090E0F1DCE980FA800B811C812D813E813B
:101000004F81588569857A858B85D5DD10DEBF9245
:10101000AF92DAD30F900F908F81882371F03CDE6E
:1010200085EB93E0E2D39FEF25EA8EE091502040DC
:101030008040E1F700C000002DDEE980FA800B81DE
:101040001C812D813E814F81588569857A858B85EC
:10105000D3DCB7DAA6CF5058BB27AA270ED075C16C
:1010600066D130F06BD120F031F49F3F11F41EF4C3
:101070005BC10EF4E095E7FB51C1E92F77D180F316
:10108000BA17620773078407950718F071F49EF585
:101090008FC10EF4E0950B2EBA2FA02D0B01B901D4
:1010A00090010C01CA01A0011124FF27591B99F0DE
:1010B000593F50F4503E68F11A16F040A22F232FEA
:1010C000342F4427585FF3CF469537952795A7953A
:1010D000F0405395C9F77EF41F16BA0B620B730BE1
:1010E000840BBAF09150A1F0FF0FBB1F661F771F52
:1010F000881FC2F70EC0BA0F621F731F841F48F407
:10110000879577956795B795F7959E3F08F0B3CF8C
:101110009395880F08F09927EE0F97958795089576
:10112000D9D008F481E008950CD00FC107D140F068
:10113000FED030F021F45F3F19F0F0C0511139C1F9
:10114000F3C014D198F39923C9F35523B1F3951B38
:10115000550BBB27AA2762177307840738F09F5FD8
:101160005F4F220F331F441FAA1FA9F333D00E2E47
:101170003AF0E0E830D091505040E695001CCAF7B4
:1011800029D0FE2F27D0660F771F881FBB1F261779
:1011900037074807AB07B0E809F0BB0B802DBF014C
:1011A000FF2793585F4F2AF09E3F510568F0B6C065
:1011B00000C15F3FECF3983EDCF386957795679529
:1011C000B795F7959F5FC9F7880F911D96958795FD
:1011D00097F90895E1E0660F771F881FBB1F62171C
:1011E00073078407BA0720F0621B730B840BBA0BDA
:1011F000EE1F88F7E095089504D06894B111D9C026
:101200000895BCD088F09F5790F0B92F9927B75117
:10121000A0F0D1F0660F771F881F991F1AF0BA95BA
:10122000C9F712C0B13081F0C3D0B1E00895C0C099
:10123000672F782F8827B85F39F0B93FCCF38695B0
:1012400077956795B395D9F73EF49095809570950D
:1012500061957F4F8F4F9F4F0895E89409C097FB8A
:101260003EF490958095709561957F4F8F4F9F4F7D
:101270009923A9F0F92F96E9BB279395F6958795C1
:1012800077956795B795F111F8CFFAF4BB0F11F484
:1012900060FF1BC06F5F7F4F8F4F9F4F16C088232B
:1012A00011F096E911C0772321F09EE8872F762F61
:1012B00005C0662371F096E8862F70E060E02AF0A2
:1012C0009A95660F771F881FDAF7880F969587958E
:1012D00097F90895990F0008550FAA0BE0E8FEEF63
:1012E00016161706E807F907C0F012161306E407EA
:1012F000F50798F0621B730B840B950B39F40A26E3
:1013000061F0232B242B252B21F408950A2609F4C0
:10131000A140A6958FEF811D811D089597F99F67C4
:1013200080E870E060E008959FEF80EC089500246D
:101330000A941616170618060906089500240A943A
:1013400012161306140605060895092E0394000CC0
:1013500011F4882352F0BB0F40F4BF2B11F460FF4F
:1013600004C06F5F7F4F8F4F9F4F089557FD905878
:10137000440F551F59F05F3F71F04795880F97FB59
:10138000991F61F09F3F79F0879508951216130613
:101390001406551FF2CF4695F1DF08C01616170642
:1013A0001806991FF1CF8695710561050894089577
:1013B000E894BB2766277727CB0197F908958ADF42
:1013C00008F48FEF08950BD0C0CFB1DF28F0B6DF5F
:1013D00018F0952309F0A2CFA7CF1124EACFC6DFDA
:1013E000A0F3959FD1F3950F50E0551F629FF00138
:1013F000729FBB27F00DB11D639FAA27F00DB11D91
:10140000AA1F649F6627B00DA11D661F829F222719
:10141000B00DA11D621F739FB00DA11D621F839FA0
:10142000A00D611D221F749F3327A00D611D231F76
:10143000849F600D211D822F762F6A2F11249F57C4
:1014400050408AF0E1F088234AF0EE0FFF1FBB1FE7
:10145000661F771F881F91505040A9F79E3F510586
:1014600070F05CCFA6CF5F3FECF3983EDCF386953F
:1014700077956795B795F795E7959F5FC1F7FE2B31
:10148000880F911D9695879597F9089597FB072EDC
:1014900016F4009406D077FD08D011D007FC05D0D3
:1014A0003EF4909581959F4F0895709561957F4F7B
:1014B0000895EE0FFF1F0590F491E02D1994AA1BDB
:1014C000BB1B51E107C0AA1FBB1FA617B70710F02F
:1014D000A61BB70B881F991F5A95A9F78095909561
:1014E000BC01CD010895CF93DF938230910510F4B4
:1014F00082E090E0E091E103F091E20320E030E04F
:10150000A0E0B0E0309739F1408151814817590788
:10151000B8F04817590771F482819381109729F028
:1015200013969C938E9312972CC09093E203809312
:10153000E10327C02115310531F04217530718F098
:10154000A901DB0101C0EF019A01BD01DF010280A9
:10155000F381E02DD7CF21153105F9F0281B390B88
:101560002430310580F48A819B816115710521F059
:10157000FB019383828304C09093E2038093E10391
:10158000FE01329644C0FE01E20FF31F8193919356
:1015900022503109398328833AC02091DF033091EA
:1015A000E003232B41F42091020230910302309397
:1015B000E0032093DF032091000230910102211506
:1015C000310541F42DB73EB7409104025091050218
:1015D000241B350BE091DF03F091E003E217F307E2
:1015E000A0F42E1B3F0B2817390778F0AC014E5F93
:1015F0005F4F2417350748F04E0F5F1F5093E003ED
:101600004093DF038193919302C0E0E0F0E0CF01CB
:10161000DF91CF910895CF93DF93009709F487C0AE
:10162000FC01329713821282C091E103D091E20350
:10163000209781F420813181280F391F8091DF03A9
:101640009091E0038217930779F5F093E003E0931C
:10165000DF036DC0DE0120E030E0AE17BF0750F4BD
:1016600012964D915C9113979D014115510509F119
:10167000DA01F3CFB383A28340815181840F951F98
:101680008A179B0771F48D919C911197840F951F78
:1016900002969183808312968D919C9113979383E8
:1016A00082832115310529F4F093E203E093E103ED
:1016B0003EC0D9011396FC93EE9312974D915D9124
:1016C000A40FB51FEA17FB0779F480819181840F7D
:1016D000951F0296D90111969C938E9382819381D6
:1016E00013969C938E931297E0E0F0E08A819B81A1
:1016F000009719F0FE01EC01F9CFCE010296288186
:101700003981820F931F2091DF033091E003281766
:10171000390769F4309729F41092E2031092E1033B
:1017200002C013821282D093E003C093DF03DF91E3
:10173000CF9108950F931F93CF93DF93EC018B010B
:10174000009731F46115710519F480E090E037C01D
:101750006EE070E081E090E063D2FC010097A9F3B5
:1017600080E883830115110571F01387028781E8F2
:1017700083838091E3039091E403892B21F4F09318
:10178000E403E093E3032097C9F0D187C087838106
:10179000826083838091E5039091E603892B71F445
:1017A000F093E603E093E5038091E7039091E8036B
:1017B000892B21F4F093E803E093E703CF01DF9155
:1017C000CF911F910F910895CF93DF93CDB7DEB7DF
:1017D000FE01369661917191AF018091E503909180
:1017E000E60330D0DF91CF9108950F931F93CF93ED
:1017F000DF93E091E503F091E603238121FF1BC015
:10180000EC0100E010E089916091E5037091E6033E
:10181000DB011896ED91FC911997882331F0199509
:10182000892B89F30FEF1FEFEECF8AE01995892BF3
:1018300011F4C80102C08FEF9FEFDF91CF911F918C
:101840000F9108952F923F924F925F926F927F92E5
:101850008F929F92AF92BF92CF92DF92EF92FF92C0
:101860000F931F93CF93DF93CDB7DEB72C970FB6AF
:10187000F894DEBF0FBECDBF7C016B018A01FC0175
:1018800017821682838181FFB0C1CE0101964C017F
:10189000F7019381F60193FD859193FF81916F018B
:1018A000882309F49EC1853239F493FD859193FF15
:1018B00081916F01853221F4B70190E0E8D1E8CF42
:1018C000512C312C20E02032A0F48B3269F030F41E
:1018D000803259F0833269F420612CC08D3239F0A6
:1018E000803339F4216026C02260246023C0286040
:1018F00021C027FD27C030ED380F3A3078F426FF9D
:1019000006C0FAE05F9E300D1124532E13C08AE00A
:10191000389E300D1124332E20620CC08E3221F4FB
:1019200026FD5FC1206406C08C3611F4206802C019
:10193000883641F4F60193FD859193FF81916F0103
:101940008111C1CF982F9F7D9554933028F40C5F5F
:101950001F4FFFE3F9830DC0833631F0833771F0F9
:10196000833509F057C021C0F801808189830E5F5B
:101970001F4F44244394512C540114C03801F2E009
:101980006F0E711CF801A080B18026FF03C0652D89
:1019900070E002C06FEF7FEFC5012C876DD12C0185
:1019A00083012C852F77222E16C03801F2E06F0EAE
:1019B000711CF801A080B18026FF03C0652D70E086
:1019C00002C06FEF7FEFC5012C8744D12C012C851D
:1019D0002068222E830123FC19C0832D90E0481635
:1019E0005906A0F4B70180E290E051D13A94F5CFC6
:1019F000F50127FC859127FE81915F01B70190E0F9
:101A000046D131103A94F1E04F1A51084114510473
:101A100079F7DEC0843611F0893631F5F80127FFF9
:101A200007C060817181828193810C5F1F4F08C064
:101A300060817181882777FD8095982F0E5F1F4FF9
:101A40002F76B22E97FF09C090958095709561957D
:101A50007F4F8F4F9F4F2068B22E2AE030E0A401C5
:101A600048D1A82EA81843C0853729F42F7EB22E5E
:101A70002AE030E025C0F22FF97FBF2E8F36C1F06B
:101A800018F4883579F0ADC0803719F0883721F027
:101A9000A8C02F2F2061B22EB4FE0DC08B2D846004
:101AA000B82E09C024FF0AC09F2F9660B92E06C029
:101AB00028E030E005C020E130E002C020E132E063
:101AC000F801B7FE07C060817181828193810C5F4C
:101AD0001F4F06C06081718180E090E00E5F1F4F54
:101AE000A40107D1A82EA818FB2DFF77BF2EB6FEA4
:101AF0000BC02B2D2E7FA51450F4B4FE0AC0B2FCEF
:101B000008C02B2D2E7E05C07A2C2B2D03C07A2CDD
:101B100001C0752C24FF0DC0FE01EA0DF11D80816E
:101B2000803311F4297E09C022FF06C07394739498
:101B300004C0822F867809F0739423FD12C020FF21
:101B400006C05A2C731418F4530C5718732C7314C2
:101B500060F4B70180E290E02C8799D073942C85D3
:101B6000F6CF731410F4371801C0312C24FF11C0C4
:101B7000B70180E390E02C878AD02C8522FF16C025
:101B800021FF03C088E590E002C088E790E0B7013C
:101B90000CC0822F867851F021FD02C080E201C086
:101BA0008BE227FD8DE2B70190E071D0A51430F4EF
:101BB000B70180E390E06BD05A94F8CFAA94F40177
:101BC000EA0DF11D8081B70190E061D0A110F6CF40
:101BD000332009F45DCEB70180E290E058D03A940A
:101BE000F7CFF7018681978102C08FEF9FEF2C9688
:101BF0000FB6F894DEBF0FBECDBFDF91CF911F911E
:101C00000F91FF90EF90DF90CF90BF90AF909F909B
:101C10008F907F906F905F904F903F902F9008959E
:101C20000F931F93CF93DF93869F8001879F100DA3
:101C3000969F100D1124C80156DCEC01009721F08D
:101C4000A80160E070E011D0CE01DF91CF911F912B
:101C50000F910895FC010590615070400110D8F774
:101C6000809590958E0F9F1F0895DC0101C06D93A4
:101C700041505040E0F70895FC01615070400190E0
:101C80000110D8F7809590958E0F9F1F08950F93A0
:101C90001F93CF93DF93182F092FEB018B8181FDC9
:101CA00003C08FEF9FEF20C082FF10C04E815F8185
:101CB0002C813D81421753077CF4E881F9819F0113
:101CC0002F5F3F4F39832883108306C0E885F9854D
:101CD000812F1995892B29F72E813F812F5F3F4F47
:101CE0003F832E83812F902FDF91CF911F910F91F2
:101CF0000895FA01AA27283051F1203181F1E894A2
:101D00006F936E7F6E5F7F4F8F4F9F4FAF4FB1E0EE
:101D10003ED0B4E03CD0670F781F891F9A1FA11DE9
:101D2000680F791F8A1F911DA11D6A0F711D811DEA
:101D3000911DA11D20D009F468943F912AE0269FAF
:101D400011243019305D3193DEF6CF010895462F0E
:101D50004770405D4193B3E00FD0C9F7F6CF462FEF
:101D60004F70405D4A3318F0495D31FD4052419358
:101D700002D0A9F7EACFB4E0A69597958795779515
:101D80006795BA95C9F700976105710508959B019C
:101D9000AC010A2E06945795479537952795BA9525
:101DA000C9F7620F731F841F951FA01D0895F89433
:021DB000FFCF63
:101DB2000000E9032000CDCCCC3D0000803F0000B4
:101DC200803FF8494E2074686520697372004D4562
:101DD20053534147453A200A49443A2025640A4C64
:101DE200656E6774683A2025640A446174613A201A
:101DF200002564200076616C203D2025640A004D98
:101E020043503235313520696E204E4F5420696E71
:101E120020636F6E66696775726174696F6E206D9B
:101E22006F646520616674657220726573657421E2
:101E32000074617267657420706F73203D202564A1
:101E42000A2063757272656E7420706F73203D2074
:101E520025640A206D6F746F722072656164203D83
:101E62002025640A20726F746D617825640A2072DD
:101E72006F746D696E25640A005754464600637597
:101E82007272656E745F6572726F72203D20256496
:101E92000A20636F6E74726F6C206F757470757444
:101EA200203D2025640A206572726F7220696E746B
:101EB200677261746564203D2025640A00692070A0
:101EC200696420696E697400726F745F6D696E2057
:101ED2006265666F7265203D2025640A00494E20C6
:101EE200544845205348495400726F745F6D696EBF
:101EF200203D203D2025640A00726F745F6D617879
:101F0200203D2025640A005049445F7363616C657B
:101F120028726F745F6D696E29203D2025640A0066
:101F22005049445F7363616C6528726F745F6D61C1
:101F32007829203D2025640A0A0A0066F872207377
:101F420065690054726973740065747465722069FE
:101F52006E6974730048656C6C6F00496E2074681A
:101F62006520696600534F4C454E4F49445F656E8C
:061F720061626C65640071
:00000001FF
