S00E00004E6F64655F322E73726563FF
S1130000C2C00000E0C00000DEC00000DCC0000090
S1130010DAC00000D8C00000D6C00000D4C0000080
S1130020D2C00000D0C00000CEC00000CCC0000090
S1130030CAC00000C8C00000C6C00000C4C00000A0
S1130040C2C00000C0C00000BEC00000BCC00000B0
S1130050BAC00000B8C00000B6C00000B4C00000C0
S1130060B2C00000B0C00000AEC00000ACC00000D0
S1130070AAC00000A8C00000A6C00000A4C00000E0
S1130080A2C00000A0C000009EC000009CC00000F0
S113009038C2000098C0000096C0000011C50000DE
S11300A092C0000090C0000085C400008CC0000015
S11300B08AC0000088C0000086C0000084C0000020
S11300C082C0000080C000007EC000007CC0000030
S11300D07AC0000078C0000076C0000074C0000040
S11300E072C000007B05CD05CD05CD05CD05CD0540
S11300F0CD05CD057B05CD05CD05CD05CD05CD05BE
S1130100CD05CD057D05CD05CD05CD05CD05CD05AB
S1130110CD05CD05CD05CD05CD05CD05CD05CD054B
S1130120CD05CD057D05CD05CD05CD05CD05CD058B
S1130130CD05CD05CD05CD05CD05CD05CD05CD052B
S1130140CD05CD05C905CD05CD05CD05CD05CD051F
S1130150CD05CD05A605CD05CD05CD05CD05CD0532
S1130160CD05CD05CD05CD05CD05CD05CD05CD05FB
S1130170CD05CD059A05CD05CD05CD05CD05CD051E
S1130180CD05CD05B80511241FBECFEFD1E2DEBFEA
S1130190CDBF00E00CBF12E0A0E0B2E0E4EBFAE176
S11301A000E00BBF02C007900D92A23CB107D9F743
S11301B022E0A2ECB2E001C01D92AB3DB207E1F730
S11301C027D50C94580D1CCFEAE7F0E080818068B5
S11301D080838081876080838098ECE7F0E0808171
S11301E08F7780838081806480838081807E808318
S11301F0ABE7B0E08C91877F8C93808180628083B1
S11302000895F8D140E664E680E6DBD140E060EE94
S11302108FE0D7C108951F93CF93DF93EC0180E360
S11302209CD183FD22C08881998196958795969566
S113023087959695879561E39DD1888162E3829540
S1130240880F807E97D165E38A8194D18A8188233F
S113025061F010E066E3610FFE01E10FF11D83819F
S113026089D11F5F8A811817A8F381E893D1DF91A0
S1130270CF911F9108951F93CF93DF93EC018CE2EC
S11302806CD180FF34C02FEF80E792E02150804092
S11302909040E1F700C0000081E65FD1182F82E6AC
S11302A05CD1482F429546954770212F30E0C90113
S11302B0880F991F880F991F880F991F842B998382
S11302C0888385E64AD187708A83882361F010E0A9
S11302D086E6810F42D1FE01E10FF11D83831F5F8A
S11302E08A811817A8F340E061E08CE26AD1DF91BB
S11302F0CF911F910895CF92DF92EF92FF920F93C7
S11303001F93CF93DF93CDB7DEB72B970FB6F89437
S1130310DEBF0FBECDBFE982FA82C02E0B831C83E1
S11303202D833E834F83588769877A878B871F92F3
S11303300F938A818F9389818F9387E092E09F93B3
S11303408F939CD70F900F900F900F900F900F905A
S11303500023B1F07E0184E0E80EF11CD12C0AE206
S113036012E0F70181917F011F928F931F930F93E6
S113037085D7D3940F900F900F900F90DC10F1CF8E
S11303808FE492E08CD72B960FB6F894DEBF0FBEA5
S1130390CDBFDF91CF911F910F91FF90EF90DF9030
S11303A0CF900895DC0111967C936E9312964C9332
S11303B01297442351F0922F1396E22FF32F819139
S11303C08D938E2F891B8417D0F3089578944CC392
S11303D00895CF93DF9300D0CDB7DEB79EE5998320
S11303E01A828B8363E0CE01019648D30F900F905D
S11303F00F90DF91CF910895CF93DF93CCECD0E0B1
S113040019821882539A5B98AAECB0E020EC2C93E2
S1130410E9ECF0E028E120839093CD0088838EE01E
S11304208C938081806880837894DF91CF91089544
S1130430E8ECF0E080818823ECF781E08093C3024C
S11304408091CE000895282F30E02E5731092D31A8
S11304503105B0F090E08C589109BC01992324F443
S113046066277727681B790B882777FD8095982F57
S11304709ED52FE832EC45E35FE303D56AD501C08E
S113048060E070E080E090E092D526E636E646EE45
S11304905FE341D65ED5862F0895CF93C9DF80935D
S11304A0C2028150823010F484E0BBD2C091C202F7
S11304B0CA3F79F467D28EE292E0F1D62FEF80E75B
S11304C092E0215080409040E1F700C0000058D2F3
S11304D016C08AEF8C0F883138F46C2F70E080E0FE
S11304E090E063D51AD20BC08DEC8C0F833B38F4AB
S11304F08C2FA9DF61E0C33808F460E0A9D0CF9164
S113050008951F920F920FB60F9211240BB60F92FB
S11305108F93EF93FF931092C3028091CE00809348
S1130520C202E8ECF0E080818F778083FF91EF9145
S11305308F910F900BBE0F900FBE0F901F901895C8
S113054043CE0895EAE7F0E080818064808380816F
S113055086FDFDCF809179000895CF93C82F26D2D0
S113056083E01BD28C2F19D21DD2C82F21D28C2FFD
S1130570CF910895CF93DF93C82FD62F17D282E05F
S11305800CD28D2F0AD28C2F08D212D280E0DF91A8
S1130590CF910895CF93C82F09D2C13039F018F004
S11305A0C23039F009C081E8F8D108C082E8F5D139
S11305B005C084E8F2D102C087E8EFD1F9D1CF9128
S11305C008951F93CF93DF93182FD62FC42FEED106
S11305D085E0E3D1812FE1D18D2FDFD18C2FDDD1C7
S11305E0E7D1DF91CF911F910895E0D180ECD5D16F
S11305F0DFC10895C9D1F9DF8FE99FE00197F1F7D1
S113060000C000008EE0A9DF807E803819F081E50B
S113061092E045C60895E2E0F1E080818F7D808319
S11306208081877F808385E88A95F1F70000209197
S1130630060180818860808385E88A95F1F700004F
S11306408091060190819062908390E0922B0895AE
S1130650613031F4E2E0F1E090819260908305C072
S1130660E2E0F1E090819D7F9083B3CE0895CF9333
S1130670DF93E1E0F1E080818A678083F5D1E2E0F5
S1130680F1E08081806180838081826080838081C9
S11306908F7B808380818064808380818F7D808351
S11306A08081877F808360E08FE7D2DF2FEF8BE448
S11306B09DE1215080409040E1F700C0000060E0DF
S11306C080E0C6DFC2E0D1E018C02FEF89EF90E0F0
S11306D0215080409040E1F700C0000088818F7B6A
S11306E088832FEF89EF90E0215080409040E1F71C
S11306F000C000008881806488838DDF892B29F7FE
S11307008ADF9093C5028093C4022FEF83ED90E3B8
S1130710215080409040E1F700C0000061E08FE785
S113072097DF2FEF8BE49DE1215080409040E1F76B
S113073000C0000061E080E08BDF6DDF9093C702B2
S11307408093C6022FEF83ED90E3215080409040C8
S1130750E1F700C0000060E08FE77ADF2FEF85EA61
S11307609EE0215080409040E1F700C0000060E02E
S113077080E06EDFDF91CF910895CF92DF92EF9208
S1130780FF92CF93DF93BC018091C6029091C70280
S1130790681779072CF46091C6027091C7020BC0E8
S11307A08091C4029091C5028617970724F4609142
S11307B0C4027091C502C091C602D091C7028827B5
S11307C077FD8095982FF3D36B017C01BE018827B8
S11307D077FD8095982FEBD39B01AC0160E070E02E
S11307E08FE793E44ED39B01AC01C701B60193D4C8
S11307F09058AFD3862F8095DF91CF91FF90EF90E3
S1130800DF90CF900895CF93DF93EC0104DFB5DF41
S1130810282F30E0CE01821B930BAC0122F4442735
S11308205527481B590B842F493720F44F514D311C
S113083018F003C088E701C08CE32C173D071CF4B3
S113084061E006DF09C0C217D3071CF460E000DFD3
S113085003C061E080E0FCDEDF91CF910895A0E861
S1130860B0E08C918E7F8C938C9182608C93E1E8C4
S1130870F0E08081886080838081806180838C91B6
S113088080688C9380818460808380818D7F808365
S113089080818160808388E391E0909387008093D6
S11308A0860086E190E09093890080938800259AE1
S11308B00895EF92FF920F931F93CF93DF93CDB7D9
S11308C0DEB72B970FB6F894DEBF0FBECDBF1C83E7
S11308D041E061E08CE275DE6C8170E080E090E0E4
S11308E064D320E030E04FE753E4CBD220E030E0A3
S11308F040E851E410D420E030E040E651E459D21D
S11309002B960FB6F894DEBF0FBECDBFDF91CF910B
S11309101F910F91FF90EF900895CF92DF92EF9285
S1130920FF926B017C0120E030E040EF51E4EFD313
S113093088233CF08EE190E09093890080938800B6
S113094018C020E030E040E651E4C701B60195D27A
S113095018163CF08EE090E0909389008093880014
S113096008C0C701B601F5D270E0709389006093A6
S11309708800FF90EF90DF90CF900895249A089517
S11309802C9808952C9A0895219A229A279A209AAD
S113099023988CB581658CBD08958EBD0DB407FE7A
S11309A0FDCF089581E0F9DF8EB508952F9808955D
S11309B02F9A08951F920F920FB60F9211248F93BE
S11309C09F938091C8029091C90201969093C902A5
S11309D08093C8028FE99FE00197F1F700C00000FF
S11309E09F918F910F900FBE0F901F901895E1EA81
S11309F0F0E080818860808389E09DE39093A90082
S1130A008093A80081E78093B3007894E2E7F0E054
S1130A10808182608083E0E7F0E080818160808370
S1130A2008951092C9021092C802843051F41092B1
S1130A30A5001092A400E1EAF0E080818560808343
S1130A400895823029F4E1EBF0E0808185608083B1
S1130A500895E1EAF0E08081887F808308958091A1
S1130A60C8029091C90208958CE08093B8008FEF7A
S1130A708093BB0084E08093BC000895ECEBF0E02D
S1130A80208120FDFDCF6093CC02FC0120812093C6
S1130A90CD0220FD0CC0623050F0DC011196EEEC6A
S1130AA0F2E081E09D9191938F5F8613FBCF1092CA
S1130AB0CB0288EF8093060285EA8093BC000895F8
S1130AC01F920F920FB60F9211240BB60F922F9311
S1130AD03F938F939F93AF93BF93EF93FF93809133
S1130AE0B90090E0FC013897E135F10508F055C0F4
S1130AF0EE58FF4F73C31092CA02E091CA0280916C
S1130B00CC02E81770F481E08E0F8093CA02F0E003
S1130B10E353FD4F80818093BB0085E88093BC0044
S1130B2043C08091CB0281608093CB0284E980939F
S1130B30BC003AC0E091CA0281E08E0F8093CA02E1
S1130B408091BB00F0E0E353FD4F80832091CA0203
S1130B5030E08091CC0290E001972817390724F403
S1130B6085EC8093BC0020C085E88093BC001CC049
S1130B708091BB00E091CA02F0E0E353FD4F808313
S1130B808091CB0281608093CB0284E98093BC0086
S1130B900BC085EA8093BC0007C08091B9008093A4
S1130BA0060284E08093BC00FF91EF91BF91AF9166
S1130BB09F918F913F912F910F900BBE0F900FBE7D
S1130BC00F901F9018959093C5008093C400E1EC9A
S1130BD0F0E088E180838EE08093C20080818068A9
S1130BE08083E0ECF0E080818068808378940895CD
S1130BF0E0ECF0E0908195FFFDCF8093C60008956E
S1130C00E0ECF0E080818823ECF78091C600089541
S1130C10CF93DF93CDB7DEB7A1970FB6F894DEBFBD
S1130C200FBECDBF8FEF81B987E690E0CCDF87E6BA
S1130C3090E0E2DB60E076E088EF95E0D5D2E1DA9F
S1130C400EDEC4DB14DD7CDC99DED1DE20E030E096
S1130C5041E060E070E0CE010196A4DB20E030E0EA
S1130C6041E06AE570E0CE010C969CDB812C99246E
S1130C7093940F2EF3E8CF2EF2E0DF2EF02D0F2EFB
S1130C80F5E9AF2EF2E0BF2EF02D188E1F8A998E53
S1130C901A8ECE014796EFDA8FE39CE90197F1F7BC
S1130CA000C000008C8D1F928F93DF92CF92E6D20A
S1130CB00F900F900F900F908F89988D803591052C
S1130CC009F450C08436910501F784E0AADEEF8868
S1130CD0F88C098D1A8D2B8D3C8D4D8D5E8D6F8D0D
S1130CE078A189A1E6DD19DE8D8D882371F04ADEB5
S1130CF08EE292E0D4D29FEF21EE84E09150204026
S1130D008040E1F700C000003BDE8C8D90E07BDD8D
S1130D1019DC8F3008F0B9CF15DC1F928F93BF9286
S1130D20AF92ACD296DE86EA92E0B9D298DE8F8793
S1130D30CE010C9670DA8FE99FE00197F1F700C0BD
S1130D400000EC84FD840E851F85288939894A8931
S1130D505B896C897D898E89CEDA0F900F900F9014
S1130D600F9093CF84E05DDE63DB813019F088203F
S1130D7009F48BCF92DBE6DB8F30E0F76ADE6FDEBF
S1130D808F87CE010C9647DA8FE99FE00197F1F740
S1130D9000C00000EC84FD840E851F8528893989F4
S1130DA04A895B896C897D898E89A5DA812C6DCF0E
S1130DB05058BB27AA270ED070C161D130F066D13C
S1130DC020F031F49F3F11F41EF456C10EF4E09567
S1130DD0E7FB4CC1E92F72D180F3BA17620773079E
S1130DE08407950718F071F49EF58AC10EF4E09516
S1130DF00B2EBA2FA02D0B01B90190010C01CA01D1
S1130E00A0011124FF27591B99F0593F50F4503E7B
S1130E1068F11A16F040A22F232F342F4427585F6D
S1130E20F3CF469537952795A795F0405395C9F785
S1130E307EF41F16BA0B620B730B840BBAF091503D
S1130E40A1F0FF0FBB1F661F771F881FC2F70EC0DC
S1130E50BA0F621F731F841F48F4879577956795AF
S1130E60B795F7959E3F08F0B3CF9395880F08F098
S1130E709927EE0F979587950895D4D008F481E0CB
S1130E8008950CD00AC102D140F0F9D030F021F419
S1130E905F3F19F0EBC0511134C1EEC00FD198F38C
S1130EA09923C9F35523B1F3951B550BBB27AA27E7
S1130EB062177307840738F09F5F5F4F220F331F59
S1130EC0441FAA1FA9F333D00E2E3AF0E0E830D025
S1130ED091505040E695001CCAF729D0FE2F27D028
S1130EE0660F771F881FBB1F261737074807AB07F6
S1130EF0B0E809F0BB0B802DBF01FF2793585F4F6B
S1130F002AF09E3F510568F0B1C0FBC05F3FECF38F
S1130F10983EDCF3869577956795B795F7959F5F2F
S1130F20C9F7880F911D9695879597F90895E1E083
S1130F30660F771F881FBB1F621773078407BA07E2
S1130F4020F0621B730B840BBA0BEE1F88F7E0953D
S1130F500895BCD088F09F5790F0B92F9927B751C6
S1130F60A0F0D1F0660F771F881F991F1AF0BA9569
S1130F70C9F712C0B13081F0C3D0B1E00895C0C048
S1130F80672F782F8827B85F39F0B93FCCF386955F
S1130F9077956795B395D9F73EF4909580957095BC
S1130FA061957F4F8F4F9F4F0895E89409C097FB39
S1130FB03EF490958095709561957F4F8F4F9F4F2C
S1130FC09923A9F0F92F96E9BB279395F695879570
S1130FD077956795B795F111F8CFFAF4BB0F11F433
S1130FE060FF1BC06F5F7F4F8F4F9F4F16C08823DA
S1130FF011F096E911C0772321F09EE8872F762F10
S113100005C0662371F096E8862F70E060E02AF050
S11310109A95660F771F881FDAF7880F969587953C
S113102097F90895990F0008550FAA0BE0E8FEEF11
S113103016161706E807F907C0F012161306E40798
S1131040F50798F0621B730B840B950B39F40A2691
S113105061F0232B242B252B21F408950A2609F46F
S1131060A140A6958FEF811D811D089597F99F6773
S113107080E870E060E008959FEF80EC089500241C
S11310800A941616170618060906089500240A94E9
S113109012161306140605060895092E0394000C6F
S11310A011F4882352F0BB0F40F4BF2B11F460FFFE
S11310B004C06F5F7F4F8F4F9F4F089557FD905827
S11310C0440F551F59F05F3F71F04795880F97FB08
S11310D0991F61F09F3F79F08795089512161306C2
S11310E01406551FF2CF4695F1DF08C016161706F1
S11310F01806991FF1CF8695710561050894089526
S1131100E894BB2766277727CB0197F908958ADFF0
S113111008F48FEF08950BD0C0CFB1DF28F0B6DF0D
S113112018F0952309F0A2CFA7CF1124EACFC6DF88
S1131130A0F3959FD1F3950F50E0551F629FF001E6
S1131140729FBB27F00DB11D639FAA27F00DB11D3F
S1131150AA1F649F6627B00DA11D661F829F2227C8
S1131160B00DA11D621F739FB00DA11D621F839F4F
S1131170A00D611D221F749F3327A00D611D231F25
S1131180849F600D211D822F762F6A2F11249F5773
S113119050408AF0E1F088234AF0EE0FFF1FBB1F96
S11311A0661F771F881F91505040A9F79E3F510535
S11311B070F05CCFA6CF5F3FECF3983EDCF38695EE
S11311C077956795B795F795E7959F5FC1F7FE2BE0
S11311D0880F911D9695879597F90895EE0FFF1F37
S11311E00590F491E02D19940F931F93CF93DF93FF
S11311F0EC018B01009731F46115710519F480E05D
S113120090E037C06EE070E081E090E063D2FC01D2
S11312100097A9F380E883830115110571F0138702
S1131220028781E883838091D1029091D202892B35
S113123021F4F093D202E093D1022097C9F0D18730
S1131240C0878381826083838091D3029091D4028A
S1131250892B71F4F093D402E093D3028091D502E8
S11312609091D602892B21F4F093D602E093D50213
S1131270CF01DF91CF911F910F910895CF93DF9309
S1131280CDB7DEB7FE01369661917191AF018091C1
S1131290D3029091D40230D0DF91CF9108950F936F
S11312A01F93CF93DF93E091D302F091D402238173
S11312B021FF1BC0EC0100E010E089916091D30292
S11312C07091D402DB011896ED91FC911997882353
S11312D031F01995892B89F30FEF1FEFEECF8AE0D8
S11312E01995892B11F4C80102C08FEF9FEFDF918C
S11312F0CF911F910F9108952F923F924F925F9239
S11313006F927F928F929F92AF92BF92CF92DF9211
S1131310EF92FF920F931F93CF93DF93CDB7DEB776
S11313202C970FB6F894DEBF0FBECDBF7C016B01C6
S11313308A01FC0117821682838181FFB0C1CE012C
S113134001964C01F7019381F60193FD859193FF7A
S113135081916F01882309F49EC1853239F493FD8C
S1131360859193FF81916F01853221F4B70190E05B
S11313700FD3E8CF512C312C20E02032A0F48B3253
S113138069F030F4803259F0833269F420612CC062
S11313908D3239F0803339F4216026C02260246014
S11313A023C0286021C027FD27C030ED380F3A3014
S11313B078F426FF06C0FAE05F9E300D1124532E08
S11313C013C08AE0389E300D1124332E20620CC0E5
S11313D08E3221F426FD5FC1206406C08C3611F4E0
S11313E0206802C0883641F4F60193FD859193FF8D
S11313F081916F018111C1CF982F9F7D95549330B6
S113140028F40C5F1F4FFFE3F9830DC0833631F0DE
S1131410833771F0833509F057C021C0F80180810A
S113142089830E5F1F4F44244394512C540114C0EC
S11314303801F2E06F0E711CF801A080B18026FF24
S113144003C0652D70E002C06FEF7FEFC5012C87EC
S113145094D22C0183012C852F77222E16C03801BB
S1131460F2E06F0E711CF801A080B18026FF03C06A
S1131470652D70E002C06FEF7FEFC5012C876BD242
S11314802C012C852068222E830123FC19C0832D76
S113149090E048165906A0F4B70180E290E078D2B3
S11314A03A94F5CFF50127FC859127FE81915F01E0
S11314B0B70190E06DD231103A94F1E04F1A51081F
S11314C04114510479F7DEC0843611F0893631F5C0
S11314D0F80127FF07C060817181828193810C5FCD
S11314E01F4F08C060817181882777FD8095982FF0
S11314F00E5F1F4F2F76B22E97FF09C090958095EF
S1131500709561957F4F8F4F9F4F2068B22E2AE0D0
S113151030E0A4016FD2A82EA81843C0853729F45F
S11315202F7EB22E2AE030E025C0F22FF97FBF2EA5
S11315308F36C1F018F4883579F0ADC0803719F0D2
S1131540883721F0A8C02F2F2061B22EB4FE0DC021
S11315508B2D8460B82E09C024FF0AC09F2F96608B
S1131560B92E06C028E030E005C020E130E002C01A
S113157020E132E0F801B7FE07C060817181828109
S113158093810C5F1F4F06C06081718180E090E001
S11315900E5F1F4FA4012ED2A82EA818FB2DFF7793
S11315A0BF2EB6FE0BC02B2D2E7FA51450F4B4FE17
S11315B00AC0B2FC08C02B2D2E7E05C07A2C2B2D20
S11315C003C07A2C01C0752C24FF0DC0FE01EA0D66
S11315D0F11D8081803311F4297E09C022FF06C0E9
S11315E07394739404C0822F867809F0739423FD56
S11315F012C020FF06C05A2C731418F4530C571849
S1131600732C731460F4B70180E290E02C87C0D18E
S113161073942C85F6CF731410F4371801C0312C51
S113162024FF11C0B70180E390E02C87B1D12C8551
S113163022FF16C021FF03C088E590E002C088E7BE
S113164090E0B7010CC0822F867851F021FD02C0D2
S113165080E201C08BE227FD8DE2B70190E098D1D2
S1131660A51430F4B70180E390E092D15A94F8CFF6
S1131670AA94F401EA0DF11D8081B70190E088D1AC
S1131680A110F6CF332009F45DCEB70180E290E0DB
S11316907FD13A94F7CFF7018681978102C08FEF0B
S11316A09FEF2C960FB6F894DEBF0FBECDBFDF912F
S11316B0CF911F910F91FF90EF90DF90CF90BF904B
S11316C0AF909F908F907F906F905F904F903F90DE
S11316D02F9008950F931F93CF93DF93869F8001DC
S11316E0879F100D969F100D1124C8010DD0EC0199
S11316F0009721F0A80160E070E038D1CE01DF91BD
S1131700CF911F910F910895CF93DF93823091056C
S113171010F482E090E0E091D902F091DA0220E046
S113172030E0A0E0B0E0309739F1408151814817B2
S11317305907B8F04817590771F4828193811097BB
S113174029F013969C938E9312972CC09093DA02EF
S11317508093D90227C02115310531F04217530770
S113176018F0A901DB0101C0EF019A01BD01DF01FD
S11317700280F381E02DD7CF21153105F9F0281B24
S1131780390B2430310580F48A819B816115710500
S113179021F0FB019383828304C09093DA02809347
S11317A0D902FE01329644C0FE01E20FF31F819379
S11317B0919322503109398328833AC02091D7026A
S11317C03091D802232B41F420910202309103027C
S11317D03093D8022093D702209100023091010265
S11317E02115310541F42DB73EB7409104025091C3
S11317F00502241B350BE091D702F091D802E217C1
S1131800F307A0F42E1B3F0B2817390778F0AC011F
S11318104E5F5F4F2417350748F04E0F5F1F5093FC
S1131820D8024093D7028193919302C0E0E0F0E0A4
S1131830CF01DF91CF910895CF93DF93009709F4FF
S113184087C0FC01329713821282C091D902D091D1
S1131850DA02209781F420813181280F391F809189
S1131860D7029091D8028217930779F5F093D802A2
S1131870E093D7026DC0DE0120E030E0AE17BF0771
S113188050F412964D915C9113979D0141155105A9
S113189009F1DA01F3CFB383A28340815181840F2C
S11318A0951F8A179B0771F48D919C911197840F52
S11318B0951F02969183808312968D919C91139724
S11318C0938382832115310529F4F093DA02E0939E
S11318D0D9023EC0D9011396FC93EE9312974D9111
S11318E05D91A40FB51FEA17FB0779F480819181FC
S11318F0840F951F0296D90111969C938E93828131
S1131900938113969C938E931297E0E0F0E08A8182
S11319109B81009719F0FE01EC01F9CFCE010296EC
S113192028813981820F931F2091D7023091D802E8
S11319302817390769F4309729F41092DA021092C3
S1131940D90202C013821282D093D802C093D70264
S1131950DF91CF910895FC01059061507040011012
S1131960D8F7809590958E0F9F1F0895DC0101C0D4
S11319706D9341505040E0F70895FC016150704070
S113198001900110D8F7809590958E0F9F1F0895B0
S11319900F931F93CF93DF93182F092FEB018B81A4
S11319A081FD03C08FEF9FEF20C082FF10C04E81E6
S11319B05F812C813D81421753077CF4E881F981D2
S11319C09F012F5F3F4F39832883108306C0E8852A
S11319D0F985812F1995892B29F72E813F812F5F56
S11319E03F4F3F832E83812F902FDF91CF911F9103
S11319F00F910895FA01AA27283051F1203181F17D
S1131A00E8946F936E7F6E5F7F4F8F4F9F4FAF4F02
S1131A10B1E03ED0B4E03CD0670F781F891F9A1F15
S1131A20A11D680F791F8A1F911DA11D6A0F711DC9
S1131A30811D911DA11D20D009F468943F912AE0D5
S1131A40269F11243019305D3193DEF6CF010895BD
S1131A50462F4770405D4193B3E00FD0C9F7F6CFEE
S1131A60462F4F70405D4A3318F0495D31FD4052B6
S1131A70419302D0A9F7EACFB4E0A695979587954C
S1131A8077956795BA95C9F700976105710508952B
S1131A909B01AC010A2E06945795479537952795D7
S1131AA0BA95C9F7620F731F841F951FA01D08956F
S1071AB0F894FFCFD4
S1131AB40000DB022000F84D4553534147453A20CA
S1131AC40A49443A2025640A4C656E6774683A20CE
S1131AD425640A446174613A200025642000534F4C
S1131AE44C454E4F49445F656E61626C65640053B6
S1131AF44552564F20494E5055543A2025640A0AFB
S1131B04004D43503235313520696E204E4F5420F8
S1131B14696E20636F6E66696775726174696F6E4E
S1131B24206D6F64652061667465722072657365E7
S1131B34742100726967687420736C696465723A0D
S1131B442025640A0049525F726561642829203D96
S1131B54202564200A0053656E64696E67206761FA
S1131B646D656F766572206D657373616765200AB0
S1051B7400006B
S9030000FC
