S00E00004E6F64655F322E73726563FF
S113000071C000008EC000008CC000008BC00000D6
S113001088C0000086C0000084C0000082C00000C8
S113002080C000007EC000007CC000007AC00000D8
S113003078C0000076C0000074C0000072C00000E8
S113004070C000006EC000006CC000006AC00000F8
S113005068C0000066C0000064C0000062C0000008
S113006060C000005EC000005CC000005AC0000018
S113007058C0000056C0000054C0000052C0000028
S113008050C000004EC000004CC000004AC0000038
S113009048C0000046C0000044C0000042C0000048
S11300A040C000003EC000003CC000003AC0000058
S11300B038C0000036C0000034C0000032C0000068
S11300C030C000002EC000002CC000002AC0000078
S11300D028C0000026C0000024C0000022C0000088
S11300E020C0000011241FBECFEFD1E2DEBFCDBF80
S11300F000E00CBF12E0A0E0B2E0ECEBFCE000E0BA
S11301000BBF02C007900D92A038B107D9F722E0C7
S1130110A0E8B2E001C01D92AB38B207E1F732D1DA
S1130120CBC56ECF1F920F920FB60F92112410926F
S113013080020F900FBE0F901F901895C0D040E022
S113014060EE8FE0A8C00895CF92DF92FF921F93D4
S1130150CF93DF93CDB7DEB72B970FB6F894DEBFFE
S11301600FBECDBF6C01FE0131968BE0DF011D9205
S11301708A95E9F786E092E09F938F93A5D288E869
S11301807DD0F82E81E07AD08F2990E09A838983FC
S113019085E374D08F708B830F900F90882379F050
S11301A010E086E3810F6AD0E4E0F0E0EC0FFD1F7D
S11301B0E10FF11D80831F5F8B81181790F38BE093
S11301C0FE013196D60101900D928A95E1F7C601A0
S11301D02B960FB6F894DEBF0FBECDBFDF91CF9143
S11301E01F91FF90DF90CF900895EF92FF920F93AD
S11301F01F93CF93DF93CDB7DEB72B970FB6F89449
S1130200DEBF0FBECDBFE982FA820B831C832D8330
S11302103E834F83588769877A878B871F920F9312
S11302208A818F9389818F938BE192E09F938F933F
S11302304BD20F900F900F900F900F900F900023C0
S113024069F07E0184E0E80EF11C10E0F701819171
S11302507F0190E04AD21F5F1013F8CF8AE090E04C
S113026044D22B960FB6F894DEBF0FBECDBFDF91FC
S1130270CF911F910F91FF90EF900895CF93C82FC6
S113028052D083E047D08C2F45D049D0C82F4DD0D1
S11302908C2FCF910895CF93DF93D62FC42F43D0C3
S11302A085E038D08D2F36D08C2F34D03ED0DF91DE
S11302B0CF91089538D080EC2DD037C00895CF93D6
S11302C020D0F8DF89EF90E00197F1F700C000003B
S11302D08EE0D4DFC82F1F928F932EE332E03F933A
S11302E02F93F2D1C07E0F900F900F900F90C038D3
S11302F029F088E492E0FED181E001C080E0CF9152
S11303000895219A229A279A209A23988CB5816578
S11303108CBD08958EBD0DB407FEFDCF089581E018
S1130320F9DF8EB508952F9808952F9A0895909324
S1130330C5008093C40088E18093C1008EE080935F
S1130340C200F894E1ECF0E0808180688083E0EC06
S1130350F0E0808180688083789481E090E0089563
S1130360E0ECF0E0908195FFFDCF8093C60083E040
S113037090E00895E0ECF0E080818823ECF7809130
S1130380C6000895CF93DF93CDB7DEB72B970FB692
S1130390F894DEBF0FBECDBF8FEF81B987E690E042
S11303A0C6DF6AEB71E080EB91E044D18AE792E02A
S11303B0A1D1C4DE2FEF85EA9EE021508040904019
S11303C0E1F700C00000CE010196BEDEE980FA80AC
S11303D00B811C812D813E814F81588569857A85E9
S11303E08B8503DFFFCFCF93DF938230910510F429
S11303F082E090E0E0918302F091840220E030E01A
S1130400A0E0B0E0309739F1408151814817590795
S1130410B8F04817590771F482819381109729F035
S113042013969C938E9312972CC09093840280937E
S1130430830227C02115310531F04217530718F004
S1130440A901DB0101C0EF019A01BD01DF010280B6
S1130450F381E02DD7CF21153105F9F0281B390B95
S11304602430310580F48A819B816115710521F066
S1130470FB019383828304C090938402809383025C
S1130480FE01329644C0FE01E20FF31F8193919363
S113049022503109398328833AC020918102309156
S11304A08202232B41F42091020230910302309303
S11304B082022093810220910002309101022115D1
S11304C0310541F42DB73EB7409104025091050225
S11304D0241B350BE0918102F0918202E217F307AD
S11304E0A0F42E1B3F0B2817390778F0AC014E5FA0
S11304F05F4F2417350748F04E0F5F1F5093820259
S1130500409381028193919302C0E0E0F0E0CF0137
S1130510DF91CF910895CF93DF93009709F487C0BB
S1130520FC01329713821282C0918302D09184021B
S1130530209781F420813181280F391F8091810215
S1130540909182028217930779F5F0938202E093E7
S113055081026DC0DE0120E030E0AE17BF0750F429
S113056012964D915C9113979D014115510509F126
S1130570DA01F3CFB383A28340815181840F951FA5
S11305808A179B0771F48D919C911197840F951F85
S113059002969183808312968D919C9113979383F5
S11305A082832115310529F4F0938402E0938302B8
S11305B03EC0D9011396FC93EE9312974D915D9131
S11305C0A40FB51FEA17FB0779F480819181840F8A
S11305D0951F0296D90111969C938E9382819381E3
S11305E013969C938E931297E0E0F0E08A819B81AE
S11305F0009719F0FE01EC01F9CFCE010296288193
S11306003981820F931F2091810230918202281731
S1130610390769F4309729F4109284021092830206
S113062002C013821282D0938202C0938102DF91AE
S1130630CF9108950F931F93CF93DF93EC018B0118
S1130640009731F46115710519F480E090E037C02A
S11306506EE070E081E090E068D2FC010097A9F3BD
S113066080E883830115110571F01387028781E8FF
S113067083838091850290918602892B21F4F093E3
S11306808602E09385022097C9F0D187C0878381D1
S1130690826083838091870290918802892B71F410
S11306A0F0938802E09387028091890290918A02F4
S11306B0892B21F4F0938A02E0938902CF01DF9120
S11306C0CF911F910F910895CF93DF93CDB7DEB7EC
S11306D0FE01369661917191AF01809187029091EC
S11306E0880235D0DF91CF9108956091870270918F
S11306F0880252C20F931F93CF93DF93E091870236
S1130700F0918802238121FF1BC0EC0100E010E07E
S113071089916091870270918802DB011896ED91AE
S1130720FC911997882331F01995892B89F30FEFE0
S11307301FEFEECF8AE01995892B11F4C80102C08E
S11307408FEF9FEFDF91CF911F910F9108952F921B
S11307503F924F925F926F927F928F929F92AF924D
S1130760BF92CF92DF92EF92FF920F931F93CF939A
S1130770DF93CDB7DEB72C970FB6F894DEBF0FBE6C
S1130780CDBF7C016B018A01FC0117821682838133
S113079081FFB0C1CE0101964C01F7019381F601AE
S11307A093FD859193FF81916F01882309F49EC184
S11307B0853239F493FD859193FF81916F018532E0
S11307C021F4B70190E0E8D1E8CF512C312C20E09E
S11307D02032A0F48B3269F030F4803259F0833245
S11307E069F420612CC08D3239F0803339F42160F2
S11307F026C02260246023C0286021C027FD27C0B2
S113080030ED380F3A3078F426FF06C0FAE05F9EE8
S1130810300D1124532E13C08AE0389E300D11245C
S1130820332E20620CC08E3221F426FD5FC1206479
S113083006C08C3611F4206802C0883641F4F601F3
S113084093FD859193FF81916F018111C1CF982F01
S11308509F7D9554933028F40C5F1F4FFFE3F98379
S11308600DC0833631F0833771F0833509F057C0FA
S113087021C0F801808189830E5F1F4F4424439473
S1130880512C540114C03801F2E06F0E711CF801B0
S1130890A080B18026FF03C0652D70E002C06FEF19
S11308A07FEFC5012C876DD12C0183012C852F7717
S11308B0222E16C03801F2E06F0E711CF801A080E0
S11308C0B18026FF03C0652D70E002C06FEF7FEF9B
S11308D0C5012C8744D12C012C852068222E83014C
S11308E023FC19C0832D90E048165906A0F4B701E3
S11308F080E290E051D13A94F5CFF50127FC85913F
S113090027FE81915F01B70190E046D131103A94FE
S1130910F1E04F1A51084114510479F7DEC08436CE
S113092011F0893631F5F80127FF07C06081718124
S1130930828193810C5F1F4F08C060817181882779
S113094077FD8095982F0E5F1F4F2F76B22E97FF5D
S113095009C090958095709561957F4F8F4F9F4FFB
S11309602068B22E2AE030E0A40148D1A82EA818AD
S113097043C0853729F42F7EB22E2AE030E025C00B
S1130980F22FF97FBF2E8F36C1F018F4883579F035
S1130990ADC0803719F0883721F0A8C02F2F20610F
S11309A0B22EB4FE0DC08B2D8460B82E09C024FF76
S11309B00AC09F2F9660B92E06C028E030E005C01B
S11309C020E130E002C020E132E0F801B7FE07C0C8
S11309D060817181828193810C5F1F4F06C06081A9
S11309E0718180E090E00E5F1F4FA40107D1A82E13
S11309F0A818FB2DFF77BF2EB6FE0BC02B2D2E7F24
S1130A00A51450F4B4FE0AC0B2FC08C02B2D2E7EEF
S1130A1005C07A2C2B2D03C07A2C01C0752C24FF21
S1130A200DC0FE01EA0DF11D8081803311F4297E91
S1130A3009C022FF06C07394739404C0822F867881
S1130A4009F0739423FD12C020FF06C05A2C7314BE
S1130A5018F4530C5718732C731460F4B70180E224
S1130A6090E02C8799D073942C85F6CF731410F4EE
S1130A70371801C0312C24FF11C0B70180E390E086
S1130A802C878AD02C8522FF16C021FF03C088E55D
S1130A9090E002C088E790E0B7010CC0822F86780E
S1130AA051F021FD02C080E201C08BE227FD8DE2FE
S1130AB0B70190E071D0A51430F4B70180E390E061
S1130AC06BD05A94F8CFAA94F401EA0DF11D8081F9
S1130AD0B70190E061D0A110F6CF332009F45DCEC8
S1130AE0B70180E290E058D03A94F7CFF7018681BD
S1130AF0978102C08FEF9FEF2C960FB6F894DEBF5C
S1130B000FBECDBFDF91CF911F910F91FF90EF905A
S1130B10DF90CF90BF90AF909F908F907F906F9019
S1130B205F904F903F902F9008950F931F93CF9312
S1130B30DF93869F8001879F100D969F100D1124CF
S1130B40C80151DCEC01009721F0A80160E070E0DD
S1130B5011D0CE01DF91CF911F910F910895FC0127
S1130B600590615070400110D8F7809590958E0FD4
S1130B709F1F0895DC0101C06D9341505040E0F780
S1130B800895FC016150704001900110D8F78095E0
S1130B9090958E0F9F1F08950F931F93CF93DF930C
S1130BA0182F092FEB018B8181FD03C08FEF9FEF7D
S1130BB020C082FF10C04E815F812C813D8142178D
S1130BC053077CF4E881F9819F012F5F3F4F3983FC
S1130BD02883108306C0E885F985812F1995892B10
S1130BE029F72E813F812F5F3F4F3F832E83812F33
S1130BF0902FDF91CF911F910F910895FA01AA27A9
S1130C00283051F1203181F1E8946F936E7F6E5F4B
S1130C107F4F8F4F9F4FAF4FB1E03ED0B4E03CD0F9
S1130C20670F781F891F9A1FA11D680F791F8A1FDC
S1130C30911DA11D6A0F711D811D911DA11D20D043
S1130C4009F468943F912AE0269F11243019305DFD
S1130C503193DEF6CF010895462F4770405D4193EE
S1130C60B3E00FD0C9F7F6CF462F4F70405D4A333B
S1130C7018F0495D31FD4052419302D0A9F7EACF03
S1130C80B4E0A6959795879577956795BA95C9F732
S1130C9000976105710508959B01AC010A2E069425
S1130CA05795479537952795BA95C9F7620F731FDE
S10F0CB0841F951FA01D0895F894FFCF29
S1130CBC00008B0220004A6567206572206920645D
S1130CCC61746172656369657665004D4553534182
S1130CDC47453A200A49443A2025640A4C656E6714
S1130CEC74683A2025640A446174613A2000766180
S1130CFC6C203D2025640A004D435032353135209B
S1130D0C696E204E4F5420696E20636F6E6669675E
S1130D1C75726174696F6E206D6F646520616674A1
S1130D2C6572207265736574210068656C6C6F0064
S9030000FC
