S00E00004E6F64655F322E73726563FF
S113000071C000008EC000008CC000008BC00000D6
S113001088C0000086C0000084C0000082C00000C8
S113002080C000007EC000007CC000007AC00000D8
S113003078C0000076C0000074C0000072C00000E8
S113004070C000006EC000006CC000006AC00000F8
S113005068C0000066C0000064C0000062C0000008
S113006060C000005EC000005CC000005AC0000018
S113007058C0000056C0000054C0000052C0000028
S113008050C000004EC000004CC000004AC0000038
S113009048C0000046C0000044C0000042C0000048
S11300A040C000003EC000003CC000003AC0000058
S11300B038C0000036C0000034C0000032C0000068
S11300C030C000002EC000002CC000002AC0000078
S11300D028C0000026C0000024C0000022C0000088
S11300E020C0000011241FBECFEFD1E2DEBFCDBF80
S11300F000E00CBF12E0A0E0B2E0EEE3FDE000E0BF
S11301000BBF02C007900D92A438B107D9F722E0C3
S1130110A4E8B2E001C01D92AF38B207E1F76FD195
S11301200CC66ECF1F920F920FB60F92112410922D
S113013084020F900FBE0F901F901895D3D040E00B
S113014060EE8FE0B6D040E664E680E6B2C0089583
S1130150DF92EF92FF920F931F93CF93DF93EC0103
S113016081E69AD0182F82E697D0482F429546957B
S11301704770212F30E0C901880F991F880F991FFC
S1130180880F991F842B99279983888385E684D0C7
S11301908F708A838823E9F0D12C06E012E0ED2CDD
S11301A0F12C86E68D0D78D0FE01EE0DFF1D8383C4
S11301B01F928F931F92DF921F930F93CBD2D394EE
S11301C00F900F900F900F900F900F908A81D81678
S11301D030F340E061E08CE26CD0DF91CF911F916D
S11301E00F91FF90EF90DF900895CF92DF92EF92FE
S11301F0FF920F931F93CF93DF93CDB7DEB72B9767
S11302000FB6F894DEBF0FBECDBFE982FA82C02ECE
S11302100B831C832D833E834F83588769877A879A
S11302208B871F920F938A818F9389818F9387E1A4
S113023092E09F938F938ED20F900F900F900F9018
S11302400F900F900023B1F07E0184E0E80EF11CC2
S1130250D12C0AE312E0F70181917F011F928F9361
S11302601F930F9377D2D3940F900F900F900F900A
S1130270DC10F1CF8EE392E07ED22B960FB6F89489
S1130280DEBF0FBECDBFDF91CF911F910F91FF90C5
S1130290EF90DF90CF900895CF93C82F81D083E063
S11302A076D08C2F74D078D0C82F7CD08C2FCF915F
S11302B008951F93CF93DF93182FD62FC42F70D098
S11302C085E065D0812F63D08D2F61D08C2F5FD0D6
S11302D069D0DF91CF911F91089562D080EC57D0FF
S11302E061C00895CF934AD0F8DF89EF90E0019779
S11302F0F1F700C000008EE0CFDFC82F1F928F936C
S113030021E432E03F932F9325D2C07E0F900F90CB
S11303100F900F90C03829F08BE492E02CD281E04A
S113032001C080E0CF910895A0E8B0E08C918E7F69
S11303308C938C9182608C93E1E8F0E080818860FA
S113034080838081806180838C9180688C9380819C
S11303508460808380818D7F8083808181608083BD
S113036088E391E0909387008093860084E690E090
S11303709093890080938800259A0895219A229A5F
S1130380279A209A23988CB581658CBD08958EBDDB
S11303900DB407FEFDCF089581E0F9DF8EB5089511
S11303A02F9808952F9A08959093C5008093C400C0
S11303B088E18093C1008EE08093C200F894E1EC60
S11303C0F0E0808180688083E0ECF0E080818068E8
S11303D08083789481E090E00895E0ECF0E09081EF
S11303E095FFFDCF8093C60083E090E00895E0EC94
S11303F0F0E080818823ECF78091C6000895CF93C4
S1130400DF93CDB7DEB72B970FB6F894DEBF0FBEE0
S1130410CDBF8FEF81B987E690E0C6DF67EF71E06B
S11304208DEE91E04DD18DE792E0A5D187DE7CDFA2
S11304308CE232DF80FFFCCFCE01019689DEE980B9
S1130440FA800B811C812D813E814F8158856985FD
S11304507A858B85CADE41E061E08CE22ADF2FEFEA
S113046085EA9EE0215080409040E1F700C0000002
S1130470DFCFCF93DF938230910510F482E090E0D8
S1130480E0918702F091880220E030E0A0E0B0E043
S1130490309739F14081518148175907B8F048170E
S11304A0590771F482819381109729F013969C93D4
S11304B08E9312972CC0909388028093870227C052
S11304C02115310531F04217530718F0A901DB015A
S11304D001C0EF019A01BD01DF010280F381E02D2B
S11304E0D7CF21153105F9F0281B390B24303105FC
S11304F080F48A819B816115710521F0FB0193834E
S1130500828304C09093880280938702FE0132960E
S113051044C0FE01E20FF31F8193919322503109ED
S1130520398328833AC02091850230918602232B97
S113053041F4209102023091030230938602209309
S1130540850220910002309101022115310541F408
S11305502DB73EB74091040250910502241B350B80
S1130560E0918502F0918602E217F307A0F42E1BB6
S11305703F0B2817390778F0AC014E5F5F4F241703
S1130580350748F04E0F5F1F509386024093850253
S11305908193919302C0E0E0F0E0CF01DF91CF912D
S11305A00895CF93DF93009709F487C0FC01329735
S11305B013821282C0918702D0918802209781F41D
S11305C020813181280F391F809185029091860204
S11305D08217930779F5F0938602E09385026DC044
S11305E0DE0120E030E0AE17BF0750F412964D91C3
S11305F05C9113979D014115510509F1DA01F3CF7F
S1130600B383A28340815181840F951F8A179B076E
S113061071F48D919C911197840F951F029691838B
S1130620808312968D919C911397938382832115D5
S1130630310529F4F0938802E09387023EC0D90182
S11306401396FC93EE9312974D915D91A40FB51FF1
S1130650EA17FB0779F480819181840F951F029634
S1130660D90111969C938E938281938113969C93C6
S11306708E931297E0E0F0E08A819B81009719F055
S1130680FE01EC01F9CFCE01029628813981820F57
S1130690931F20918502309186022817390769F447
S11306A0309729F4109288021092870202C01382B4
S11306B01282D0938602C0938502DF91CF91089570
S11306C00F931F93CF93DF93EC018B01009731F4C9
S11306D06115710519F480E090E037C06EE070E0B8
S11306E081E090E063D2FC010097A9F380E8838362
S11306F00115110571F01387028781E883838091C6
S1130700890290918A02892B21F4F0938A02E09362
S113071089022097C9F0D187C0878381826083834F
S113072080918B0290918C02892B71F4F0938C024E
S1130730E0938B0280918D0290918E02892B21F49B
S1130740F0938E02E0938D02CF01DF91CF911F9140
S11307500F910895CF93DF93CDB7DEB7FE013696A0
S113076061917191AF0180918B0290918C0230D094
S1130770DF91CF9108950F931F93CF93DF93E0916F
S11307808B02F0918C02238121FF1BC0EC0100E05D
S113079010E0899160918B0270918C02DB011896B4
S11307A0ED91FC911997882331F01995892B89F3E0
S11307B00FEF1FEFEECF8AE01995892B11F4C801D2
S11307C002C08FEF9FEFDF91CF911F910F9108959A
S11307D02F923F924F925F926F927F928F929F924D
S11307E0AF92BF92CF92DF92EF92FF920F931F933B
S11307F0CF93DF93CDB7DEB72C970FB6F894DEBF57
S11308000FBECDBF7C016B018A01FC0117821682E9
S1130810838181FFB0C1CE0101964C01F701938120
S1130820F60193FD859193FF81916F01882309F46B
S11308309EC1853239F493FD859193FF81916F01B7
S1130840853221F4B70190E0E8D1E8CF512C312C66
S113085020E02032A0F48B3269F030F4803259F079
S1130860833269F420612CC08D3239F0803339F43D
S1130870216026C02260246023C0286021C027FD97
S113088027C030ED380F3A3078F426FF06C0FAE07E
S11308905F9E300D1124532E13C08AE0389E300D14
S11308A01124332E20620CC08E3221F426FD5FC148
S11308B0206406C08C3611F4206802C0883641F4E6
S11308C0F60193FD859193FF81916F018111C1CF51
S11308D0982F9F7D9554933028F40C5F1F4FFFE3AE
S11308E0F9830DC0833631F0833771F0833509F015
S11308F057C021C0F801808189830E5F1F4F4424B3
S11309004394512C540114C03801F2E06F0E711C51
S1130910F801A080B18026FF03C0652D70E002C0FD
S11309206FEF7FEFC5012C876DD12C0183012C85DE
S11309302F77222E16C03801F2E06F0E711CF801D9
S1130940A080B18026FF03C0652D70E002C06FEF68
S11309507FEFC5012C8744D12C012C852068222EE1
S1130960830123FC19C0832D90E048165906A0F496
S1130970B70180E290E051D13A94F5CFF50127FC1C
S1130980859127FE81915F01B70190E046D1311036
S11309903A94F1E04F1A51084114510479F7DEC03A
S11309A0843611F0893631F5F80127FF07C06081DC
S11309B07181828193810C5F1F4F08C060817181B6
S11309C0882777FD8095982F0E5F1F4F2F76B22EC4
S11309D097FF09C090958095709561957F4F8F4FD3
S11309E09F4F2068B22E2AE030E0A40148D1A82EFF
S11309F0A81843C0853729F42F7EB22E2AE030E0B0
S1130A0025C0F22FF97FBF2E8F36C1F018F4883538
S1130A1079F0ADC0803719F0883721F0A8C02F2FA6
S1130A202061B22EB4FE0DC08B2D8460B82E09C097
S1130A3024FF0AC09F2F9660B92E06C028E030E03C
S1130A4005C020E130E002C020E132E0F801B7FE49
S1130A5007C060817181828193810C5F1F4F06C042
S1130A606081718180E090E00E5F1F4FA40107D187
S1130A70A82EA818FB2DFF77BF2EB6FE0BC02B2D7A
S1130A802E7FA51450F4B4FE0AC0B2FC08C02B2D6E
S1130A902E7E05C07A2C2B2D03C07A2C01C0752C18
S1130AA024FF0DC0FE01EA0DF11D8081803311F495
S1130AB0297E09C022FF06C07394739404C0822F58
S1130AC0867809F0739423FD12C020FF06C05A2CC7
S1130AD0731418F4530C5718732C731460F4B7017F
S1130AE080E290E02C8799D073942C85F6CF731410
S1130AF010F4371801C0312C24FF11C0B70180E372
S1130B0090E02C878AD02C8522FF16C021FF03C0D9
S1130B1088E590E002C088E790E0B7010CC0822F1E
S1130B20867851F021FD02C080E201C08BE227FDEE
S1130B308DE2B70190E071D0A51430F4B70180E3E1
S1130B4090E06BD05A94F8CFAA94F401EA0DF11D09
S1130B508081B70190E061D0A110F6CF332009F471
S1130B605DCEB70180E290E058D03A94F7CFF70118
S1130B708681978102C08FEF9FEF2C960FB6F89471
S1130B80DEBF0FBECDBFDF91CF911F910F91FF90BC
S1130B90EF90DF90CF90BF90AF909F908F907F9019
S1130BA06F905F904F903F902F9008950F931F93F5
S1130BB0CF93DF93869F8001879F100D969F100D22
S1130BC01124C80156DCEC01009721F0A80160E073
S1130BD070E011D0CE01DF91CF911F910F91089554
S1130BE0FC010590615070400110D8F780959095F4
S1130BF08E0F9F1F0895DC0101C06D93415050403A
S1130C00E0F70895FC016150704001900110D8F79D
S1130C10809590958E0F9F1F08950F931F93CF93E8
S1130C20DF93182F092FEB018B8181FD03C08FEF18
S1130C309FEF20C082FF10C04E815F812C813D81D7
S1130C40421753077CF4E881F9819F012F5F3F4FDE
S1130C5039832883108306C0E885F985812F199587
S1130C60892B29F72E813F812F5F3F4F3F832E83AE
S1130C70812F902FDF91CF911F910F910895FA0149
S1130C80AA27283051F1203181F1E8946F936E7FC7
S1130C906E5F7F4F8F4F9F4FAF4FB1E03ED0B4E0B8
S1130CA03CD0670F781F891F9A1FA11D680F791FF9
S1130CB08A1F911DA11D6A0F711D811D911DA11D0A
S1130CC020D009F468943F912AE0269F112430191A
S1130CD0305D3193DEF6CF010895462F4770405DB5
S1130CE04193B3E00FD0C9F7F6CF462F4F70405D64
S1130CF04A3318F0495D31FD4052419302D0A9F7BF
S1130D00EACFB4E0A6959795879577956795BA95B8
S1130D10C9F700976105710508959B01AC010A2E7E
S1130D2006945795479537952795BA95C9F7620F55
S1110D30731F841F951FA01D0895F894FFCF14
S1130D3E00008F0220004D73672069203D2025643A
S1130D4E203D2025640A004D4553534147453A2022
S1130D5E0A49443A2025640A4C656E6774683A2041
S1130D6E25640A446174613A2000256420000A0A4D
S1130D7E0076616C203D2025640A004D43503235C7
S1130D8E313520696E204E4F5420696E20636F6E8C
S1130D9E66696775726174696F6E206D6F64652024
S1130DAE6166746572207265736574210068656C82
S1070DBE6C6F000052
S9030000FC
