:1000000071C000008FC000008DC000008CC00000D7
:1000100089C0000087C0000085C0000083C00000C8
:1000200081C000007FC000007DC000007BC00000D8
:1000300079C0000077C0000075C0000073C00000E8
:1000400071C000006FC000006DC000006BC00000F8
:1000500069C0000067C0000065C0000063C0000008
:1000600061C000005FC000005DC000005BC0000018
:1000700059C000001EC1000055C0000053C0000060
:1000800051C000004FC000004DC000004BC0000038
:1000900049C0000047C0000045C0000043C0000048
:1000A00041C000003FC000003DC000003BC0000058
:1000B00039C0000037C0000035C0000033C0000068
:1000C00031C000002FC000002DC000002BC0000078
:1000D00029C0000027C0000025C0000023C0000088
:1000E00021C0000011241FBECFEFD1E2DEBFCDBF83
:1000F00000E00CBF12E0A0E0B2E0EEE8F2E100E0C8
:100100000BBF02C007900D92A438B107D9F722E0C7
:10011000A4E8B2E001C01D92A039B207E1F71ED2F7
:100120000C9445096DCF1F920F920FB60F921124B8
:10013000109285020F900FBE0F901F901895EED071
:1001400040E060EE8FE0D1D040E664E680E6CDC0CE
:1001500008951F93CF93DF93EC0181E6B9D0182F58
:1001600082E6B6D0482F429546954770212F30E061
:10017000C901880F991F880F991F880F991F842B19
:1001800099279983888385E6A3D08F708A838823F3
:1001900061F010E086E6810F9BD0FE01E10FF11DBA
:1001A00083831F5F8A811817A8F340E061E08CE227
:1001B0009CD0DF91CF911F910895CF92DF92EF9263
:1001C000FF920F931F93CF93DF93CDB7DEB72B979B
:1001D0000FB6F894DEBF0FBECDBFE982FA82C02E03
:1001E0000B831C832D833E834F83588769877A87CF
:1001F0008B871F920F938A818F9389818F9386E0DB
:1002000092E09F938F934ED50F900F900F900F9089
:100210000F900F900023B1F07E0184E0E80EF11CF6
:10022000D12C09E212E0F70181917F011F928F9397
:100230001F930F9337D5D3940F900F900F900F907B
:10024000DC10F1CF8DE292E03ED52B960FB6F894FC
:10025000DEBF0FBECDBFDF91CF911F910F91FF90F9
:10026000EF90DF90CF900895EAE7F0E08081876813
:1002700080838098ECE7F0E08081806480837894CC
:10028000EAE7F0E080818860808380818F7E8083D0
:100290000895EAE7F0E080818064808380918402A1
:1002A0008823E1F310928402809178009091790084
:1002B00008951F920F920FB60F9211248F9381E031
:1002C000809384028F910F900FBE0F901F9018950E
:1002D000CF93C82F14D183E009D18C2F07D10BD134
:1002E000C82F0FD18C2FCF9108951F93CF93DF93F9
:1002F000182FD62FC42F03D185E0F8D0812FF6D048
:100300008D2FF4D08C2FF2D0FCD0DF91CF911F91A4
:100310000895F5D080ECEAD0F4C00895CF93DDD0F5
:10032000F8DF89EF90E00197F1F700C000008EE060
:10033000CFDFC82F1F928F9320E332E03F932F939C
:10034000B1D4C07E0F900F900F900F90C03829F05D
:100350008AE392E0B8D481E001C080E0CF910895B3
:10036000A0E8B0E08C918E7F8C938C9182608C930E
:10037000E1E8F0E080818860808380818061808313
:100380008C9180688C9380818460808380818D7F54
:10039000808380818160808388E391E090938700EF
:1003A0008093860085E190E0909389008093880097
:1003B000259A0895EF92FF920F931F93CF93DF93A7
:1003C000CDB7DEB72B970FB6F894DEBF0FBECDBF0B
:1003D0008CE27EDF80FF13C0CE010196BADEE98099
:1003E000FA800B811C812D813E814F815885698562
:1003F0007A858B85E2DE41E061E08CE276DF6C811C
:1004000070E080E090E0C4D1E62EF72E082F192F7F
:100410009F938F937F936F932CE632E03F932F93BC
:1004200041D420E030E04FE753E46E2D7F2D802F44
:10043000912F1AD123E333E343E451E45FD22AE955
:1004400039E949E751E4A8D02AE939E949ED5FE300
:10045000A2D00F900F900F900F900F900F902B96AF
:100460000FB6F894DEBF0FBECDBFDF91CF911F91C5
:100470000F91FF90EF900895CF92DF92EF92FF924D
:100480006B017C0120E030E04CEE51E433D2882354
:100490003CF08DE190E0909389008093880018C033
:1004A00027E636E64EE551E4C701B601D9D0181665
:1004B0003CF08DE090E0909389008093880008C024
:1004C000C701B60139D170E070938900609388004C
:1004D000FF90EF90DF90CF900895219A229A279A6B
:1004E000209A23988CB581658CBD08958EBD0DB47E
:1004F00007FEFDCF089581E0F9DF8EB508952F98AE
:1005000008952F9A08959093C5008093C40088E1C0
:100510008093C1008EE08093C200F894E1ECF0E09B
:10052000808180688083E0ECF0E080818068808357
:10053000789481E090E00895E0ECF0E0908195FF00
:10054000FDCF8093C60083E090E00895E0ECF0E0FA
:1005500080818823ECF78091C6000895F8948FEF8E
:1005600081B987E690E0CFDF66EA72E08CE992E03D
:100570004FD3E5DDF5DE78DEC8E7D2E08ADE1F92F4
:100580008F93DF93CF938ED315DF76DF0F900F908D
:100590000F900F90F3CF5058BB27AA270ED070C1F1
:1005A00061D130F066D120F031F49F3F11F41EF498
:1005B00056C10EF4E095E7FB4CC1E92F72D180F3F0
:1005C000BA17620773078407950718F071F49EF550
:1005D0008AC10EF4E0950B2EBA2FA02D0B01B901A4
:1005E00090010C01CA01A0011124FF27591B99F0A9
:1005F000593F50F4503E68F11A16F040A22F232FB5
:10060000342F4427585FF3CF469537952795A79504
:10061000F0405395C9F77EF41F16BA0B620B730BAB
:10062000840BBAF09150A1F0FF0FBB1F661F771F1C
:10063000881FC2F70EC0BA0F621F731F841F48F4D1
:10064000879577956795B795F7959E3F08F0B3CF57
:100650009395880F08F09927EE0F97958795089541
:10066000D4D008F481E008950CD00AC102D140F042
:10067000F9D030F021F45F3F19F0EBC0511134C1D3
:10068000EEC00FD198F39923C9F35523B1F3951B0D
:10069000550BBB27AA2762177307840738F09F5FA3
:1006A0005F4F220F331F441FAA1FA9F333D00E2E12
:1006B0003AF0E0E830D091505040E695001CCAF77F
:1006C00029D0FE2F27D0660F771F881FBB1F261744
:1006D00037074807AB07B0E809F0BB0B802DBF0117
:1006E000FF2793585F4F2AF09E3F510568F0B1C035
:1006F000FBC05F3FECF3983EDCF3869577956795FA
:10070000B795F7959F5FC9F7880F911D96958795C7
:1007100097F90895E1E0660F771F881FBB1F6217E6
:1007200073078407BA0720F0621B730B840BBA0BA4
:10073000EE1F88F7E0950895BCD088F09F5790F0A1
:10074000B92F9927B751A0F0D1F0660F771F881FF6
:10075000991F1AF0BA95C9F712C0B13081F0C3D011
:10076000B1E00895C0C0672F782F8827B85F39F0AF
:10077000B93FCCF3869577956795B395D9F73EF455
:1007800090958095709561957F4F8F4F9F4F0895FD
:10079000E89409C097FB3EF490958095709561951B
:1007A0007F4F8F4F9F4F9923A9F0F92F96E9BB27D1
:1007B0009395F695879577956795B795F111F8CF4D
:1007C000FAF4BB0F11F460FF1BC06F5F7F4F8F4FB8
:1007D0009F4F16C0882311F096E911C0772321F0AE
:1007E0009EE8872F762F05C0662371F096E8862F46
:1007F00070E060E02AF09A95660F771F881FDAF79D
:10080000880F9695879597F90895990F0008550FC9
:10081000AA0BE0E8FEEF16161706E807F907C0F086
:1008200012161306E407F50798F0621B730B840B8E
:10083000950B39F40A2661F0232B242B252B21F468
:1008400008950A2609F4A140A6958FEF811D811D08
:10085000089597F99F6780E870E060E008959FEF42
:1008600080EC089500240A94161617061806090647
:10087000089500240A941216130614060506089516
:10088000092E0394000C11F4882352F0BB0F40F49E
:10089000BF2B11F460FF04C06F5F7F4F8F4F9F4FDE
:1008A000089557FD9058440F551F59F05F3F71F060
:1008B0004795880F97FB991F61F09F3F79F08795C7
:1008C0000895121613061406551FF2CF4695F1DF50
:1008D00008C0161617061806991FF1CF86957105E0
:1008E000610508940895E894BB2766277727CB0114
:1008F00097F908958ADF08F48FEF08950BD0C0CFE1
:10090000B1DF28F0B6DF18F0952309F0A2CFA7CF0A
:100910001124EACFC6DFA0F3959FD1F3950F50E0E5
:10092000551F629FF001729FBB27F00DB11D639FA1
:10093000AA27F00DB11DAA1F649F6627B00DA11D47
:10094000661F829F2227B00DA11D621F739FB00DED
:10095000A11D621F839FA00D611D221F749F33275D
:10096000A00D611D231F849F600D211D822F762FF6
:100970006A2F11249F5750408AF0E1F088234AF0F3
:10098000EE0FFF1FBB1F661F771F881F915050403F
:10099000A9F79E3F510570F05CCFA6CF5F3FECF307
:1009A000983EDCF3869577956795B795F795E7952B
:1009B0009F5FC1F7FE2B880F911D9695879597F93C
:1009C0000895CF93DF938230910510F482E090E098
:1009D000E0918802F091890220E030E0A0E0B0E0F0
:1009E000309739F14081518148175907B8F04817BD
:1009F000590771F482819381109729F013969C9383
:100A00008E9312972CC0909389028093880227C0FE
:100A10002115310531F04217530718F0A901DB0108
:100A200001C0EF019A01BD01DF010280F381E02DD9
:100A3000D7CF21153105F9F0281B390B24303105AA
:100A400080F48A819B816115710521F0FB019383FC
:100A5000828304C09093890280938802FE013296BB
:100A600044C0FE01E20FF31F81939193225031099C
:100A7000398328833AC02091860230918702232B44
:100A800041F42091020230910302309387022093B7
:100A9000860220910002309101022115310541F4B6
:100AA0002DB73EB74091040250910502241B350B2F
:100AB000E0918602F0918702E217F307A0F42E1B63
:100AC0003F0B2817390778F0AC014E5F5F4F2417B2
:100AD000350748F04E0F5F1F509387024093860200
:100AE0008193919302C0E0E0F0E0CF01DF91CF91DC
:100AF0000895CF93DF93009709F487C0FC013297E4
:100B000013821282C0918802D0918902209781F4C9
:100B100020813181280F391F8091860290918702B0
:100B20008217930779F5F0938702E09386026DC0F0
:100B3000DE0120E030E0AE17BF0750F412964D9171
:100B40005C9113979D014115510509F1DA01F3CF2D
:100B5000B383A28340815181840F951F8A179B071D
:100B600071F48D919C911197840F951F029691833A
:100B7000808312968D919C91139793838283211584
:100B8000310529F4F0938902E09388023EC0D9012F
:100B90001396FC93EE9312974D915D91A40FB51FA0
:100BA000EA17FB0779F480819181840F951F0296E3
:100BB000D90111969C938E938281938113969C9375
:100BC0008E931297E0E0F0E08A819B81009719F004
:100BD000FE01EC01F9CFCE01029628813981820F06
:100BE000931F20918602309187022817390769F4F4
:100BF000309729F4109289021092880202C0138261
:100C00001282D0938702C0938602DF91CF9108951C
:100C10000F931F93CF93DF93EC018B01009731F477
:100C20006115710519F480E090E037C06EE070E066
:100C300081E090E063D2FC010097A9F380E8838310
:100C40000115110571F01387028781E88383809174
:100C50008A0290918B02892B21F4F0938B02E0930E
:100C60008A022097C9F0D187C087838182608383FD
:100C700080918C0290918D02892B71F4F0938D02FA
:100C8000E0938C0280918E0290918F02892B21F447
:100C9000F0938F02E0938E02CF01DF91CF911F91ED
:100CA0000F910895CF93DF93CDB7DEB7FE0136964F
:100CB00061917191AF0180918C0290918D0230D041
:100CC000DF91CF9108950F931F93CF93DF93E0911E
:100CD0008C02F0918D02238121FF1BC0EC0100E00A
:100CE00010E0899160918C0270918D02DB01189661
:100CF000ED91FC911997882331F01995892B89F38F
:100D00000FEF1FEFEECF8AE01995892B11F4C80180
:100D100002C08FEF9FEFDF91CF911F910F91089548
:100D20002F923F924F925F926F927F928F929F92FB
:100D3000AF92BF92CF92DF92EF92FF920F931F93E9
:100D4000CF93DF93CDB7DEB72C970FB6F894DEBF05
:100D50000FBECDBF7C016B018A01FC011782168298
:100D6000838181FFB0C1CE0101964C01F7019381CF
:100D7000F60193FD859193FF81916F01882309F41A
:100D80009EC1853239F493FD859193FF81916F0166
:100D9000853221F4B70190E0E8D1E8CF512C312C15
:100DA00020E02032A0F48B3269F030F4803259F028
:100DB000833269F420612CC08D3239F0803339F4EC
:100DC000216026C02260246023C0286021C027FD46
:100DD00027C030ED380F3A3078F426FF06C0FAE02D
:100DE0005F9E300D1124532E13C08AE0389E300DC3
:100DF0001124332E20620CC08E3221F426FD5FC1F7
:100E0000206406C08C3611F4206802C0883641F494
:100E1000F60193FD859193FF81916F018111C1CFFF
:100E2000982F9F7D9554933028F40C5F1F4FFFE35C
:100E3000F9830DC0833631F0833771F0833509F0C3
:100E400057C021C0F801808189830E5F1F4F442461
:100E50004394512C540114C03801F2E06F0E711C00
:100E6000F801A080B18026FF03C0652D70E002C0AC
:100E70006FEF7FEFC5012C876DD12C0183012C858D
:100E80002F77222E16C03801F2E06F0E711CF80188
:100E9000A080B18026FF03C0652D70E002C06FEF17
:100EA0007FEFC5012C8744D12C012C852068222E90
:100EB000830123FC19C0832D90E048165906A0F445
:100EC000B70180E290E051D13A94F5CFF50127FCCB
:100ED000859127FE81915F01B70190E046D13110E5
:100EE0003A94F1E04F1A51084114510479F7DEC0E9
:100EF000843611F0893631F5F80127FF07C060818B
:100F00007181828193810C5F1F4F08C06081718164
:100F1000882777FD8095982F0E5F1F4F2F76B22E72
:100F200097FF09C090958095709561957F4F8F4F81
:100F30009F4F2068B22E2AE030E0A40148D1A82EAD
:100F4000A81843C0853729F42F7EB22E2AE030E05E
:100F500025C0F22FF97FBF2E8F36C1F018F48835E7
:100F600079F0ADC0803719F0883721F0A8C02F2F55
:100F70002061B22EB4FE0DC08B2D8460B82E09C046
:100F800024FF0AC09F2F9660B92E06C028E030E0EB
:100F900005C020E130E002C020E132E0F801B7FEF8
:100FA00007C060817181828193810C5F1F4F06C0F1
:100FB0006081718180E090E00E5F1F4FA40107D136
:100FC000A82EA818FB2DFF77BF2EB6FE0BC02B2D29
:100FD0002E7FA51450F4B4FE0AC0B2FC08C02B2D1D
:100FE0002E7E05C07A2C2B2D03C07A2C01C0752CC7
:100FF00024FF0DC0FE01EA0DF11D8081803311F444
:10100000297E09C022FF06C07394739404C0822F06
:10101000867809F0739423FD12C020FF06C05A2C75
:10102000731418F4530C5718732C731460F4B7012D
:1010300080E290E02C8799D073942C85F6CF7314BE
:1010400010F4371801C0312C24FF11C0B70180E320
:1010500090E02C878AD02C8522FF16C021FF03C088
:1010600088E590E002C088E790E0B7010CC0822FCD
:10107000867851F021FD02C080E201C08BE227FD9D
:101080008DE2B70190E071D0A51430F4B70180E390
:1010900090E06BD05A94F8CFAA94F401EA0DF11DB8
:1010A0008081B70190E061D0A110F6CF332009F420
:1010B0005DCEB70180E290E058D03A94F7CFF701C7
:1010C0008681978102C08FEF9FEF2C960FB6F89420
:1010D000DEBF0FBECDBFDF91CF911F910F91FF906B
:1010E000EF90DF90CF90BF90AF909F908F907F90C8
:1010F0006F905F904F903F902F9008950F931F93A4
:10110000CF93DF93869F8001879F100D969F100DD0
:101110001124C80156DCEC01009721F0A80160E021
:1011200070E011D0CE01DF91CF911F910F91089502
:10113000FC010590615070400110D8F780959095A2
:101140008E0F9F1F0895DC0101C06D9341505040E8
:10115000E0F70895FC016150704001900110D8F74C
:10116000809590958E0F9F1F08950F931F93CF9397
:10117000DF93182F092FEB018B8181FD03C08FEFC7
:101180009FEF20C082FF10C04E815F812C813D8186
:10119000421753077CF4E881F9819F012F5F3F4F8D
:1011A00039832883108306C0E885F985812F199536
:1011B000892B29F72E813F812F5F3F4F3F832E835D
:1011C000812F902FDF91CF911F910F910895FA01F8
:1011D000AA27283051F1203181F1E8946F936E7F76
:1011E0006E5F7F4F8F4F9F4FAF4FB1E03ED0B4E067
:1011F0003CD0670F781F891F9A1FA11D680F791FA8
:101200008A1F911DA11D6A0F711D811D911DA11DB8
:1012100020D009F468943F912AE0269F11243019C8
:10122000305D3193DEF6CF010895462F4770405D63
:101230004193B3E00FD0C9F7F6CF462F4F70405D12
:101240004A3318F0495D31FD4052419302D0A9F76D
:10125000EACFB4E0A6959795879577956795BA9567
:10126000C9F700976105710508959B01AC010A2E2D
:1012700006945795479537952795BA95C9F7620F04
:0E128000731F841F951FA01D0895F894FFCFC3
:10128E000000900220004D4553534147453A200A35
:10129E0049443A2025640A4C656E6774683A2025E5
:1012AE00640A446174613A2000256420000A0A0031
:1012BE0076616C203D2025640A004D435032353155
:1012CE003520696E204E4F5420696E20636F6E6616
:1012DE00696775726174696F6E206D6F64652061E8
:1012EE00667465722072657365742100785F706F25
:1012FE0073203D2025640A00414443204952202595
:04130E00640A00006D
:00000001FF
