S00E00004E6F64655F322E73726563FF
S1130000C2C00000E0C00000DEC00000DDC000008F
S1130010DAC00000D8C00000D6C00000D4C0000080
S1130020D2C00000D0C00000CEC00000CCC0000090
S1130030CAC00000C8C00000C6C000007CC20000E6
S1130040C2C00000C0C00000BEC00000BCC00000B0
S1130050BAC00000B8C00000B6C00000B4C00000C0
S1130060B2C000002EC40000AEC00000ACC000004E
S1130070AAC000009AC10000A6C00000A4C00000ED
S1130080A2C00000A0C000009EC000009CC00000F0
S11300909AC0000098C0000096C0000064C300002D
S11300A092C0000090C0000003C300008CC0000098
S11300B08AC0000088C0000086C0000084C0000020
S11300C082C0000080C000007EC000007CC0000030
S11300D07AC0000078C0000076C0000074C0000040
S11300E072C00000CE032004200420042004200455
S11300F020042004CE03200420042004200420042F
S113010020042004D003200420042004200420041C
S113011020042004200420042004200420042004BB
S113012020042004D00320042004200420042004FC
S1130130200420042004200420042004200420049B
S1130140200420041C04200420042004200420048F
S113015020042004F90320042004200420042004A3
S1130160200420042004200420042004200420046B
S113017020042004ED03200420042004200420048F
S1130180200420040B0411241FBECFEFD1E2DEBFF4
S1130190CDBF00E00CBF12E0A0E0B2E0EEE3F7E177
S11301A000E00BBF02C007900D92A839B107D9F740
S11301B022E0A8E9B2E001C01D92AE3AB207E1F72D
S11301C0ACD30C949D0B1CCF1F920F920FB60F92C1
S11301D011241092A3020F900FBE0F901F90189538
S11301E019D140E664E680E6FCD040E060EE8FE0A2
S11301F0F8D04FEF61E08BE2F4D04FEF60E680E699
S1130200F0C008951F93CF93DF93EC018CE2DCD010
S113021080FF35C02FEF80E792E02150804090406E
S1130220E1F700C0000081E6CFD0182F82E6CCD0E1
S1130230482F429546954770212F30E0C901880F19
S1130240991F880F991F880F991F842B99279983C9
S1130250888385E6B9D08F708A83882361F010E0A3
S113026086E6810FB1D0FE01E10FF11D83831F5F8C
S11302708A811817A8F340E061E08CE2B2D0DF91E4
S1130280CF911F910895CF92DF92EF92FF920F9337
S11302901F93CF93DF93CDB7DEB72B970FB6F894A8
S11302A0DEBF0FBECDBFE982FA82C02E0B831C8352
S11302B02D833E834F83588769877A878B871F9264
S11302C00F938A818F9389818F9387E092E09F9324
S11302D08F9340D70F900F900F900F900F900F9027
S11302E00023B1F07E0184E0E80EF11CD12C0AE277
S11302F012E0F70181917F011F928F931F930F9357
S113030029D7D3940F900F900F900F90DC10F1CF5A
S11303108EE292E030D72B960FB6F894DEBF0FBE74
S1130320CDBFDF91CF911F910F91FF90EF90DF90A0
S1130330CF9008957894EBC10895CF93DF9300D0C4
S1130340CDB7DEB79EE599831A828B8363E0CE0135
S11303500196E7D10F900F900F90DF91CF91089500
S1130360EAE7F0E08081876880838098ECE7F0E03A
S113037080818064808380818F7780838081807E88
S11303808083EBE7F0E08081877F80837894EAE7DD
S1130390F0E080818860808380818F7E8083ECE7B9
S11303A0F0E080818062808308951F920F920FB6DF
S11303B00F9211248F9381E0809398028F910F9074
S11303C00FBE0F901F901895CF93C82F6DD183E067
S11303D062D18C2F60D164D1C82F68D18C2FCF917A
S11303E008951F93CF93DF93182FD62FC42F5CD17A
S11303F085E051D1812F4FD18D2F4DD18C2F4BD1F1
S113040055D1DF91CF911F9108954ED180EC43D106
S11304104DC10895CF9336D1F8DF8FE99FE001975E
S1130420F1F700C0000041E061E08BE2DADF8EE02A
S1130430CBDFC82F1F928F9321E332E03F932F939A
S113044089D6C07E0F900F900F900F90C03829F07E
S11304508BE392E090D681E001C080E0CF910895D3
S1130460E1E0F1E080818A67808351D1E2E0F1E04C
S113047080818261808380818F7B8083808180649E
S1130480808380818F7D80838081877F80830895AE
S1130490613031F4E2E0F1E090819260908305C034
S11304A0E2E0F1E090819D7F908347CF0895EF9241
S11304B0FF920F931F93CF93DF93CDB7DEB72B97A4
S11304C00FB6F894DEBF0FBECDBF3F57832F9927D9
S11304D087FD909599231CF49195819591092B960C
S11304E00FB6F894DEBF0FBECDBFDF91CF911F9141
S11304F00F91FF90EF900895EF92FF920F931F9347
S1130500CF93DF93CDB7DEB72B970FB6F894DEBF4A
S11305100FBECDBF832F881F8827881F2B960FB649
S1130520F894DEBF0FBECDBFDF91CF911F910F9125
S1130530FF90EF9008951F920F920FB60F9211241F
S11305400F900FBE0F901F901895A0E8B0E08C910B
S11305508E7F8C938C9182608C93E1E8F0E08081B3
S1130560886080838081806180838C9180688C9393
S113057080818460808380818D7F8083808181609D
S1130580808388E391E0909387008093860085E1DF
S113059090E09093890080938800259A0895EF92C3
S11305A0FF920F931F93CF93DF93CDB7DEB72B97B3
S11305B00FB6F894DEBF0FBECDBF1C838EE292E06F
S11305C0DAD541E061E08CE20CDF6C8170E080E020
S11305D090E030D320E030E04FE753E497D223E3B8
S11305E033E343E451E4DCD32AE939E949E751E44C
S11305F025D22AE939E949ED5FE31FD22B960FB6DC
S1130600F894DEBF0FBECDBFDF91CF911F910F9144
S1130610FF90EF900895CF92DF92EF92FF926B01DB
S11306207C0120E030E04CEE51E4B6D388233CF06A
S11306308DE190E0909389008093880018C027E6AC
S113064036E64EE551E4C701B6015CD218163CF01B
S11306508DE090E0909389008093880008C0C701E2
S1130660B601BCD270E07093890060938800FF905B
S1130670EF90DF90CF900895249A08952C9A0895CE
S11306802C980895219A229A279A209A23988CB517
S113069081658CBD08958EBD0DB407FEFDCF089510
S11306A081E0F9DF8EB508952F9808952F9A089563
S11306B01F920F920FB60F9211248F939F938091E4
S11306C0990290919A02019690939A0280939902CA
S11306D08FE99FE00197F1F700C000009F918F918F
S11306E00F900FBE0F901F901895E1EAF0E0808103
S11306F08860808389E09DE39093A9008093A8009B
S11307007894E2E7F0E080818260808308958CE051
S11307108093B8008FEF8093BB0084E08093BC008B
S11307200895ECEBF0E0208120FDFDCF60939D0265
S1130730FC01208120939E0220FD0CC0623050F009
S1130740DC011196EFE9F2E081E09D9191938F5FD6
S11307508613FBCF10929C0288EF8093060285EAF1
S11307608093BC0008951F920F920FB60F9211242C
S11307700BB60F922F933F938F939F93AF93BF9397
S1130780EF93FF938091B90090E0FC013897E13535
S1130790F10508F055C0EE58FF4F65C310929B0257
S11307A0E0919B0280919D02E81770F481E08E0F26
S11307B080939B02F0E0E256FD4F80818093BB0062
S11307C085E88093BC0043C080919C028160809343
S11307D09C0284E98093BC003AC0E0919B0281E0D2
S11307E08E0F80939B028091BB00F0E0E256FD4F98
S11307F0808320919B0230E080919D0290E00197DC
S11308002817390724F485EC8093BC0020C085E8C0
S11308108093BC001CC08091BB00E0919B02F0E07F
S1130820E256FD4F808380919C02816080939C02FC
S113083084E98093BC000BC085EA8093BC0007C0A8
S11308408091B9008093060284E08093BC00FF91FC
S1130850EF91BF91AF919F918F913F912F910F9005
S11308600BBE0F900FBE0F901F9018959093C5006C
S11308708093C40088E18093C1008EE08093C2001D
S1130880F894E1ECF0E0808180688083E0ECF0E0B3
S1130890808180688083789481E090E00895E0EC22
S11308A0F0E0908195FFFDCF8093C60083E090E057
S11308B00895E0ECF0E080818823ECF78091C60095
S11308C008951F920F920FB60F9211240BB60F9238
S11308D02F933F934F935F936F937F938F939F9344
S11308E0AF93BF93EF93FF9381E08093A202809133
S11308F0C600D5DFFF91EF91BF91AF919F918F918A
S11309007F916F915F914F913F912F910F900BBE0B
S11309100F900FBE0F901F901895CF93DF93CDB714
S1130920DEB72B970FB6F894DEBF0FBECDBFF89499
S11309308FEF81B987E690E099DF69E574E08FE491
S113094094E0BED34DDC01DEF5DC8ADD09DD94DE06
S1130950CCDE0F2EFDE6CF2EF2E0DF2EF02D2FEFB2
S113096081EE94E0215080409040E1F700C0000007
S1130970CE01019647DCE980FA800B811C812D8130
S11309803E814F81588569857A858B857CDC898198
S11309909A818436910519F7CE01019633DCDF92F2
S11309A0CF92D8D3E980FA800B811C812D813E81BE
S11309B04F81588569857A858B8565DCE980FA8065
S11309C00B811C812D813E814F81588569857A85F3
S11309D08B85E5DD20DE0F900F908F81882359F001
S11309E04FDE2FEF80E792E0215080409040E1F706
S11309F000C0000043DEE980FA800B811C812D8158
S1130A003E814F81588569857A858B8575DDB82E41
S1130A10E980FA800B811C812D813E814F815885AC
S1130A2069857A858B8543DD6B2D32DD89819A81D9
S1130A308436910509F4B0CF92CF5058BB27AA272A
S1130A400ED070C161D130F066D120F031F49F3FF7
S1130A5011F41EF456C10EF4E095E7FB4CC1E92FE6
S1130A6072D180F3BA17620773078407950718F0E9
S1130A7071F49EF58AC10EF4E0950B2EBA2FA02DC9
S1130A800B01B90190010C01CA01A0011124FF2737
S1130A90591B99F0593F50F4503E68F11A16F04032
S1130AA0A22F232F342F4427585FF3CF4695379531
S1130AB02795A795F0405395C9F77EF41F16BA0BF6
S1130AC0620B730B840BBAF09150A1F0FF0FBB1FA4
S1130AD0661F771F881FC2F70EC0BA0F621F731FED
S1130AE0841F48F4879577956795B795F7959E3F4A
S1130AF008F0B3CF9395880F08F09927EE0F9795D8
S1130B0087950895D4D008F481E008950CD00AC1E3
S1130B1002D140F0F9D030F021F45F3F19F0EBC07E
S1130B20511134C1EEC00FD198F39923C9F3552361
S1130B30B1F3951B550BBB27AA27621773078407CC
S1130B4038F09F5F5F4F220F331F441FAA1FA9F382
S1130B5033D00E2E3AF0E0E830D091505040E69574
S1130B60001CCAF729D0FE2F27D0660F771F881FD5
S1130B70BB1F261737074807AB07B0E809F0BB0BC4
S1130B80802DBF01FF2793585F4F2AF09E3F5105E8
S1130B9068F0B1C0FBC05F3FECF3983EDCF3869590
S1130BA077956795B795F7959F5FC9F7880F911D5E
S1130BB09695879597F90895E1E0660F771F881F4A
S1130BC0BB1F621773078407BA0720F0621B730BFD
S1130BD0840BBA0BEE1F88F7E0950895BCD088F01B
S1130BE09F5790F0B92F9927B751A0F0D1F0660F15
S1130BF0771F881F991F1AF0BA95C9F712C0B13030
S1130C0081F0C3D0B1E00895C0C0672F782F882742
S1130C10B85F39F0B93FCCF3869577956795B3956E
S1130C20D9F73EF490958095709561957F4F8F4FDD
S1130C309F4F0895E89409C097FB3EF490958095E2
S1130C40709561957F4F8F4F9F4F9923A9F0F92F8E
S1130C5096E9BB279395F695879577956795B7950C
S1130C60F111F8CFFAF4BB0F11F460FF1BC06F5FF2
S1130C707F4F8F4F9F4F16C0882311F096E911C004
S1130C80772321F09EE8872F762F05C0662371F025
S1130C9096E8862F70E060E02AF09A95660F771F39
S1130CA0881FDAF7880F9695879597F90895990F15
S1130CB00008550FAA0BE0E8FEEF16161706E80722
S1130CC0F907C0F012161306E407F50798F0621B43
S1130CD0730B840B950B39F40A2661F0232B242B18
S1130CE0252B21F408950A2609F4A140A6958FEF37
S1130CF0811D811D089597F99F6780E870E060E089
S1130D0008959FEF80EC089500240A9416161706A0
S1130D1018060906089500240A94121613061406E8
S1130D2005060895092E0394000C11F4882352F04B
S1130D30BB0F40F4BF2B11F460FF04C06F5F7F4F03
S1130D408F4F9F4F089557FD9058440F551F59F0EA
S1130D505F3F71F04795880F97FB991F61F09F3FA4
S1130D6079F087950895121613061406551FF2CFCD
S1130D704695F1DF08C0161617061806991FF1CF1D
S1130D8086957105610508940895E894BB27662744
S1130D907727CB0197F908958ADF08F48FEF089538
S1130DA00BD0C0CFB1DF28F0B6DF18F0952309F0DF
S1130DB0A2CFA7CF1124EACFC6DFA0F3959FD1F32A
S1130DC0950F50E0551F629FF001729FBB27F00DF5
S1130DD0B11D639FAA27F00DB11DAA1F649F66274A
S1130DE0B00DA11D661F829F2227B00DA11D621F99
S1130DF0739FB00DA11D621F839FA00D611D221F53
S1130E00749F3327A00D611D231F849F600D211D36
S1130E10822F762F6A2F11249F5750408AF0E1F0D9
S1130E2088234AF0EE0FFF1FBB1F661F771F881F22
S1130E3091505040A9F79E3F510570F05CCFA6CF6A
S1130E405F3FECF3983EDCF3869577956795B7950D
S1130E50F795E7959F5FC1F7FE2B880F911D969537
S1130E60879597F90895EE0FFF1F0590F491E02DF3
S1130E701994CF93DF938230910510F482E090E0CF
S1130E80E091A602F091A70220E030E0A0E0B0E0FB
S1130E90309739F14081518148175907B8F0481704
S1130EA0590771F482819381109729F013969C93CA
S1130EB08E9312972CC09093A7028093A60227C00A
S1130EC02115310531F04217530718F0A901DB0150
S1130ED001C0EF019A01BD01DF010280F381E02D21
S1130EE0D7CF21153105F9F0281B390B24303105F2
S1130EF080F48A819B816115710521F0FB01938344
S1130F00828304C09093A7028093A602FE013296C6
S1130F1044C0FE01E20FF31F8193919322503109E3
S1130F20398328833AC02091A4023091A502232B4F
S1130F3041F420910202309103023093A5022093E0
S1130F40A40220910002309101022115310541F4DF
S1130F502DB73EB74091040250910502241B350B76
S1130F60E091A402F091A502E217F307A0F42E1B6E
S1130F703F0B2817390778F0AC014E5F5F4F2417F9
S1130F80350748F04E0F5F1F5093A5024093A4020B
S1130F908193919302C0E0E0F0E0CF01DF91CF9123
S1130FA00895CF93DF93009709F487C0FC0132972B
S1130FB013821282C091A602D091A702209781F4D5
S1130FC020813181280F391F8091A4029091A502BC
S1130FD08217930779F5F093A502E093A4026DC0FC
S1130FE0DE0120E030E0AE17BF0750F412964D91B9
S1130FF05C9113979D014115510509F1DA01F3CF75
S1131000B383A28340815181840F951F8A179B0764
S113101071F48D919C911197840F951F0296918381
S1131020808312968D919C911397938382832115CB
S1131030310529F4F093A702E093A6023EC0D9013A
S11310401396FC93EE9312974D915D91A40FB51FE7
S1131050EA17FB0779F480819181840F951F02962A
S1131060D90111969C938E938281938113969C93BC
S11310708E931297E0E0F0E08A819B81009719F04B
S1131080FE01EC01F9CFCE01029628813981820F4D
S1131090931F2091A4023091A5022817390769F4FF
S11310A0309729F41092A7021092A60202C013826C
S11310B01282D093A502C093A402DF91CF91089528
S11310C00F931F93CF93DF93EC018B01009731F4BF
S11310D06115710519F480E090E037C06EE070E0AE
S11310E081E090E063D2FC010097A9F380E8838358
S11310F00115110571F01387028781E883838091BC
S1131100A8029091A902892B21F4F093A902E093FB
S1131110A8022097C9F0D187C08783818260838326
S11311208091AA029091AB02892B71F4F093AB02E7
S1131130E093AA028091AC029091AD02892B21F434
S1131140F093AD02E093AC02CF01DF91CF911F91F8
S11311500F910895CF93DF93CDB7DEB7FE01369696
S113116061917191AF018091AA029091AB0230D04C
S1131170DF91CF9108950F931F93CF93DF93E09165
S1131180AA02F091AB02238121FF1BC0EC0100E015
S113119010E089916091AA027091AB02DB0118966C
S11311A0ED91FC911997882331F01995892B89F3D6
S11311B00FEF1FEFEECF8AE01995892B11F4C801C8
S11311C002C08FEF9FEFDF91CF911F910F91089590
S11311D02F923F924F925F926F927F928F929F9243
S11311E0AF92BF92CF92DF92EF92FF920F931F9331
S11311F0CF93DF93CDB7DEB72C970FB6F894DEBF4D
S11312000FBECDBF7C016B018A01FC0117821682DF
S1131210838181FFB0C1CE0101964C01F701938116
S1131220F60193FD859193FF81916F01882309F461
S11312309EC1853239F493FD859193FF81916F01AD
S1131240853221F4B70190E0E8D1E8CF512C312C5C
S113125020E02032A0F48B3269F030F4803259F06F
S1131260833269F420612CC08D3239F0803339F433
S1131270216026C02260246023C0286021C027FD8D
S113128027C030ED380F3A3078F426FF06C0FAE074
S11312905F9E300D1124532E13C08AE0389E300D0A
S11312A01124332E20620CC08E3221F426FD5FC13E
S11312B0206406C08C3611F4206802C0883641F4DC
S11312C0F60193FD859193FF81916F018111C1CF47
S11312D0982F9F7D9554933028F40C5F1F4FFFE3A4
S11312E0F9830DC0833631F0833771F0833509F00B
S11312F057C021C0F801808189830E5F1F4F4424A9
S11313004394512C540114C03801F2E06F0E711C47
S1131310F801A080B18026FF03C0652D70E002C0F3
S11313206FEF7FEFC5012C876DD12C0183012C85D4
S11313302F77222E16C03801F2E06F0E711CF801CF
S1131340A080B18026FF03C0652D70E002C06FEF5E
S11313507FEFC5012C8744D12C012C852068222ED7
S1131360830123FC19C0832D90E048165906A0F48C
S1131370B70180E290E051D13A94F5CFF50127FC12
S1131380859127FE81915F01B70190E046D131102C
S11313903A94F1E04F1A51084114510479F7DEC030
S11313A0843611F0893631F5F80127FF07C06081D2
S11313B07181828193810C5F1F4F08C060817181AC
S11313C0882777FD8095982F0E5F1F4F2F76B22EBA
S11313D097FF09C090958095709561957F4F8F4FC9
S11313E09F4F2068B22E2AE030E0A40148D1A82EF5
S11313F0A81843C0853729F42F7EB22E2AE030E0A6
S113140025C0F22FF97FBF2E8F36C1F018F488352E
S113141079F0ADC0803719F0883721F0A8C02F2F9C
S11314202061B22EB4FE0DC08B2D8460B82E09C08D
S113143024FF0AC09F2F9660B92E06C028E030E032
S113144005C020E130E002C020E132E0F801B7FE3F
S113145007C060817181828193810C5F1F4F06C038
S11314606081718180E090E00E5F1F4FA40107D17D
S1131470A82EA818FB2DFF77BF2EB6FE0BC02B2D70
S11314802E7FA51450F4B4FE0AC0B2FC08C02B2D64
S11314902E7E05C07A2C2B2D03C07A2C01C0752C0E
S11314A024FF0DC0FE01EA0DF11D8081803311F48B
S11314B0297E09C022FF06C07394739404C0822F4E
S11314C0867809F0739423FD12C020FF06C05A2CBD
S11314D0731418F4530C5718732C731460F4B70175
S11314E080E290E02C8799D073942C85F6CF731406
S11314F010F4371801C0312C24FF11C0B70180E368
S113150090E02C878AD02C8522FF16C021FF03C0CF
S113151088E590E002C088E790E0B7010CC0822F14
S1131520867851F021FD02C080E201C08BE227FDE4
S11315308DE2B70190E071D0A51430F4B70180E3D7
S113154090E06BD05A94F8CFAA94F401EA0DF11DFF
S11315508081B70190E061D0A110F6CF332009F467
S11315605DCEB70180E290E058D03A94F7CFF7010E
S11315708681978102C08FEF9FEF2C960FB6F89467
S1131580DEBF0FBECDBFDF91CF911F910F91FF90B2
S1131590EF90DF90CF90BF90AF909F908F907F900F
S11315A06F905F904F903F902F9008950F931F93EB
S11315B0CF93DF93869F8001879F100D969F100D18
S11315C01124C80156DCEC01009721F0A80160E069
S11315D070E011D0CE01DF91CF911F910F9108954A
S11315E0FC010590615070400110D8F780959095EA
S11315F08E0F9F1F0895DC0101C06D934150504030
S1131600E0F70895FC016150704001900110D8F793
S1131610809590958E0F9F1F08950F931F93CF93DE
S1131620DF93182F092FEB018B8181FD03C08FEF0E
S11316309FEF20C082FF10C04E815F812C813D81CD
S1131640421753077CF4E881F9819F012F5F3F4FD4
S113165039832883108306C0E885F985812F19957D
S1131660892B29F72E813F812F5F3F4F3F832E83A4
S1131670812F902FDF91CF911F910F910895FA013F
S1131680AA27283051F1203181F1E8946F936E7FBD
S11316906E5F7F4F8F4F9F4FAF4FB1E03ED0B4E0AE
S11316A03CD0670F781F891F9A1FA11D680F791FEF
S11316B08A1F911DA11D6A0F711D811D911DA11D00
S11316C020D009F468943F912AE0269F1124301910
S11316D0305D3193DEF6CF010895462F4770405DAB
S11316E04193B3E00FD0C9F7F6CF462F4F70405D5A
S11316F04A3318F0495D31FD4052419302D0A9F7B5
S1131700EACFB4E0A6959795879577956795BA95AE
S1131710C9F700976105710508959B01AC010A2E74
S113172006945795479537952795BA95C9F7620F4B
S1111730731F841F951FA01D0895F894FFCF0A
S113173E0000AE022000F84D4553534147453A2070
S113174E0A49443A2025640A4C656E6774683A2047
S113175E25640A446174613A2000256420000A0A53
S113176E0076616C203D2025640A004D43503235CD
S113177E313520696E204E4F5420696E20636F6E92
S113178E66696775726174696F6E206D6F6465202A
S113179E616674657220726573657421006D73677A
S11317AE2E6964203D3D2047414D455F4944202626
S11317BE26206D73672E646174615B47414D455FEE
S10B17CE454E41424C455D000B
S9030000FC
